:100000000C942A000C943C000C943C000C943C0092
:100010000C943C000C943C000C943C000C943C0070
:100020000C943C000C943C000C943C000C943C0060
:100030000C943C000C943C000C943C000C943C0050
:100040000C943C000C943C000C943C000C943C0040
:100050000C943C0011241FBECFE5D8E0DEBFCDBF1D
:1000600010E0A0E6B0E001C01D92A136B107E1F7B3
:100070000E943E000C9450030C940000DF93CF9339
:10008000CDB7DEB70E9437038DE161E00E944F00DB
:10009000EAE4F0E081E590E091838083F9CFDF939B
:1000A000CF9300D0CDB7DEB789836A838981803250
:1000B00008F0CDC08A81882321F08A81813009F03F
:1000C000C6C08981883070F5AAE3B0E0EAE3F0E0C9
:1000D0008081482F8981882F90E09C0127703070A3
:1000E00081E090E002C0880F991F2A95E2F7809581
:1000F00084238C93AAE3B0E0EAE3F0E08081482F08
:100100008A81282F30E08981882F90E08770907055
:10011000B90102C0660F771F8A95E2F7CB01842BE5
:100120008C9395C089818850883070F5A7E3B0E042
:10013000E7E3F0E08081482F8981882F90E09C01DF
:100140002770307081E090E002C0880F991F2A95D7
:10015000E2F7809584238C93A7E3B0E0E7E3F0E037
:100160008081482F8A81282F30E08981882F90E074
:1001700087709070B90102C0660F771F8A95E2F709
:10018000CB01842B8C9363C089818051883070F5BA
:10019000A4E3B0E0E4E3F0E08081482F8981882F78
:1001A00090E09C012770307081E090E002C0880FE1
:1001B000991F2A95E2F7809584238C93A4E3B0E0FD
:1001C000E4E3F0E08081482F8A81282F30E08981A4
:1001D000882F90E087709070B90102C0660F771F7A
:1001E0008A95E2F7CB01842B8C9331C089818851A9
:1001F000883068F5A1E3B0E0E1E3F0E08081482FCA
:100200008981882F90E09C012770307081E090E018
:1002100002C0880F991F2A95E2F7809584238C935A
:10022000A1E3B0E0E1E3F0E08081482F8A81282F4C
:1002300030E08981882F90E087709070B90102C00A
:10024000660F771F8A95E2F7CB01842B8C930F9072
:100250000F90CF91DF910895DF93CF9300D0CDB76A
:10026000DEB789836A838981882329F4EAE3F0E091
:100270008A81808317C08981813029F4E7E3F0E027
:100280008A8180830FC08981823029F4E4E3F0E021
:100290008A81808307C08981833021F4E1E3F0E023
:1002A0008A8180830F900F90CF91DF910895DF9323
:1002B000CF9300D0CDB7DEB789836A83898180323E
:1002C00008F0CDC08A81882321F08A81813009F02D
:1002D000C6C08981883070F5ABE3B0E0EBE3F0E0B5
:1002E0008081482F8981882F90E09C012770307091
:1002F00081E090E002C0880F991F2A95E2F780956F
:1003000084238C93ABE3B0E0EBE3F0E08081482FF3
:100310008A81282F30E08981882F90E08770907043
:10032000B90102C0660F771F8A95E2F7CB01842BD3
:100330008C9395C089818850883070F5A8E3B0E02F
:10034000E8E3F0E08081482F8981882F90E09C01CC
:100350002770307081E090E002C0880F991F2A95C5
:10036000E2F7809584238C93A8E3B0E0E8E3F0E023
:100370008081482F8A81282F30E08981882F90E062
:1003800087709070B90102C0660F771F8A95E2F7F7
:10039000CB01842B8C9363C089818051883070F5A8
:1003A000A5E3B0E0E5E3F0E08081482F8981882F64
:1003B00090E09C012770307081E090E002C0880FCF
:1003C000991F2A95E2F7809584238C93A5E3B0E0EA
:1003D000E5E3F0E08081482F8A81282F30E0898191
:1003E000882F90E087709070B90102C0660F771F68
:1003F0008A95E2F7CB01842B8C9331C08981885197
:10040000883068F5A2E3B0E0E2E3F0E08081482FB5
:100410008981882F90E09C012770307081E090E006
:1004200002C0880F991F2A95E2F7809584238C9348
:10043000A2E3B0E0E2E3F0E08081482F8A81282F38
:1004400030E08981882F90E087709070B90102C0F8
:10045000660F771F8A95E2F7CB01842B8C930F9060
:100460000F90CF91DF910895DF93CF9300D0CDB758
:10047000DEB789836A838981882329F4EBE3F0E07E
:100480008A81808317C08981813029F4E8E3F0E014
:100490008A8180830FC08981823029F4E5E3F0E00E
:1004A0008A81808307C08981833021F4E2E3F0E010
:1004B0008A8180830F900F90CF91DF910895DF9311
:1004C000CF9300D0CDB7DEB78A838A81803208F01F
:1004D0009AC08A81883018F5E9E3F0E08081482FDE
:1004E00050E08A81882F90E09C012770307081E075
:1004F00090E002C0880F991F2A95E2F79A012823FD
:1005000039238A81882F90E087709070A90102C0FA
:10051000559547958A95E2F7CA01898374C08A8107
:100520008850883018F5E6E3F0E08081482F50E0ED
:100530008A81882F90E09C012770307081E090E0E4
:1005400002C0880F991F2A95E2F79A0128233923C0
:100550008A81882F90E087709070A90102C055951C
:1005600047958A95E2F7CA0189834DC08A818051F7
:10057000883018F5E3E3F0E08081482F50E08A816D
:10058000882F90E09C012770307081E090E002C0DD
:10059000880F991F2A95E2F79A01282339238A8127
:1005A000882F90E087709070A90102C055954795FB
:1005B0008A95E2F7CA01898326C08A8188518830EA
:1005C00010F5E0E3F0E08081482F50E08A81882F29
:1005D00090E09C012770307081E090E002C0880FAD
:1005E000991F2A95E2F79A01282339238A81882FB7
:1005F00090E087709070A90102C0559547958A9543
:10060000E2F7CA01898389810F900F90CF91DF9122
:100610000895DF93CF9300D0CDB7DEB7898389816A
:10062000882329F4E9E3F0E080818A831AC0898174
:10063000813029F4E6E3F0E080818A8312C0898169
:10064000823029F4E3E3F0E080818A830AC0898163
:10065000833029F4E0E3F0E080818A8302C08FEFE9
:100660008A838A810F900F90CF91DF910895DF9355
:10067000CF93CDB7DEB7AFE4B0E0EFE4F0E0808138
:1006800082688C93AEE4B0E0EEE4F0E080818C61AF
:100690008C93E6E4F0E081E78083CF91DF910895C9
:0406A000F894FFCFFC
:00000001FF
