:100000000C942A000C9447000C9447000C94470071
:100010000C9447000C9447000C9447000C94470044
:100020000C9447000C9447000C9447000C94470034
:100030000C9447000C9447000C9447000C94470024
:100040000C9447000C9447000C9447000C94470014
:100050000C94470011241FBECFE5D8E0DEBFCDBF12
:1000600010E0A0E6B0E0E6E8F9E202C005900D92EB
:10007000AE37B107D9F710E0AEE7B0E001C01D928E
:10008000A238B107E1F70E9483130C94C1140C94B9
:100090000000EF92FF920F931F937B018C0120E0F1
:1000A00030E040E05FE40E94F50388238CF0C80153
:1000B000B70120E030E040E05FE40E94C1010E940F
:1000C00055049B01AC01205030404040504806C0D0
:1000D000C801B7010E9455049B01AC01B901CA01D6
:1000E0001F910F91FF90EF900895A0E0B0E0EBE733
:1000F000F0E00C948A14DC012B01FA019C919230FF
:1001000008F439C1EB018881823008F433C194309E
:1001100069F4843009F02FC111969C91119789815F
:10012000981709F428C1A5E7B0E025C1843009F487
:1001300021C18230A9F4923009F01DC19A01AD01AC
:1001400088E0EA010990AE01E90109929E0181501F
:10015000C1F7E201898111969C918923818308C1AD
:10016000923009F407C112962D903C901397EB0141
:100170008A819B811496AD90BD90CD90DC901797AD
:10018000EC80FD800E811F819101281B390BB90184
:1001900037FF04C066277727621B730B6032710537
:1001A0000CF061C0121613066CF537014801062EDB
:1001B00004C096948794779467940A94D2F721E0C8
:1001C00030E040E050E004C0220F331F441F551FB1
:1001D0006A95D2F721503040404050402E213F21B7
:1001E00040235123211531054105510521F021E01E
:1001F00030E040E050E079018A01E628F72808293C
:1002000019293CC0232BD1F1260E371E350146019A
:10021000062E04C096948794779467940A94D2F734
:1002200021E030E040E050E004C0220F331F441FC3
:10023000551F6A95D2F721503040404050402A2146
:100240003B214C215D21211531054105510521F04E
:1002500021E030E040E050E059016A01A628B728CB
:10026000C828D9280BC0821593052CF01C01AA249C
:10027000BB24650103C0EE24FF24870111969C91E5
:10028000D20111968C91981709F445C0992339F041
:10029000A80197012A193B094C095D0906C0A6016E
:1002A00095012E193F09400B510B57FD08C01182D3
:1002B0003382228224833583468357831DC081E0A5
:1002C00081833382228288279927DC01821B930B4A
:1002D000A40BB50B84839583A683B7830DC0220F2F
:1002E000331F441F551F24833583468357838281E0
:1002F000938101979383828324813581468157813D
:10030000DA01C9010197A109B1098F5F9F4FAF4F72
:10031000BF4328F30BC0918333822282EA0CFB1C7B
:100320000C1D1D1DE482F5820683178383E0808304
:10033000248135814681578157FF1AC0C901AA27F8
:1003400097FDA095BA2F81709070A070B0705695EF
:10035000479537952795822B932BA42BB52B848318
:100360009583A683B7838281938101969383828349
:10037000DF0101C0D201CD01CDB7DEB7E2E10C94BF
:10038000A614A0E2B0E0E7ECF1E00C9496146983C7
:100390007A838B839C832D833E834F835887E9E048
:1003A000EE2EF12CEC0EFD1ECE010196B7010E943F
:1003B0007E058E010F5E1F4FCE010596B8010E948B
:1003C0007E058A8991E089278A8BC701B801AE0131
:1003D000475E5F4F0E9475000E94A904A096E6E068
:1003E0000C94B214A0E2B0E0E8EFF1E00C949614A3
:1003F00069837A838B839C832D833E834F835887C5
:10040000F9E0EF2EF12CEC0EFD1ECE010196B701A6
:100410000E947E058E010F5E1F4FCE010596B8012A
:100420000E947E05C701B801AE01475E5F4F0E9482
:1004300075000E94A904A096E6E00C94B214A0E214
:10044000B0E0E5E2F2E00C948A1469837A838B834E
:100450009C832D833E834F835887CE010196BE0136
:10046000675F7F4F0E947E05CE010596BE016F5EDD
:100470007F4F0E947E059985923088F0898982306D
:10048000C8F0943019F4823051F404C0843029F457
:10049000923081F485E790E0C6C0923049F420E0C4
:1004A0009A858A89981321E02A87CE010996BBC0D4
:1004B000823049F420E09A858A89981321E02A8BBA
:1004C000CE014196B0C02D843E844F8458886D88FB
:1004D0007E888F88988CEE24FF248701AA24BB2471
:1004E000650140E050E060E070E0E0E0F0E0C10174
:1004F00081709070892BE9F0E60CF71C081D191D1E
:100500009A01AB012A0D3B1D4C1D5D1D80E090E062
:10051000A0E0B0E0E614F7040805190520F481E036
:1005200090E0A0E0B0E0BA01A901480F591F6A1F8E
:100530007B1FAA0CBB1CCC1CDD1C97FE08C081E0F5
:1005400090E0A0E0B0E0A82AB92ACA2ADB2A3196B6
:10055000E032F10549F0660C771C881C991C569412
:10056000479437942794C3CFFA85EA892B893C892D
:100570008B859C85280F391F2E5F3F4F17C0CA01FE
:1005800081709070892B61F016950795F794E79428
:1005900080E090E0A0E0B0E8E82AF92A0A2B1B2BC3
:1005A00076956795579547952F5F3F4F77FDE7CF36
:1005B0000CC0440F551F661F771F17FD4160EE0CDE
:1005C000FF1C001F111F21503040403090E05907A0
:1005D00090E0690790E4790760F32B8F3C8FDB0193
:1005E000CA018F779070A070B07080349105A1051A
:1005F000B10561F447FD0AC0E114F10401051105DC
:1006000029F0405C5F4F6F4F7F4F40781A8EFE1786
:1006100011F081E08A8F4D8F5E8F6F8F78A383E01A
:10062000898FCE0149960E94A904A096E2E10C941C
:10063000A614A8E1B0E0EFE1F3E00C949214698312
:100640007A838B839C832D833E834F835887B9E0C5
:10065000EB2EF12CEC0EFD1ECE010196B7010E948F
:100660007E058E010F5E1F4FCE010596B8010E94D8
:100670007E052985223008F47EC03989323010F495
:10068000B8017CC08A859A8989278A87243011F02D
:10069000223031F4231709F06EC065E770E06EC0B8
:1006A000343039F41D861E861F86188A1C861B86E8
:1006B00004C0323021F484E08987B7015FC02B8504
:1006C0003C858B899C89281B390B3C872B87ED84C3
:1006D000FE840F851889AD88BE88CF88D88CEA142F
:1006E000FB040C051D0540F4EE0CFF1C001F111F40
:1006F000215030403C872B8720E030E040E050E044
:1007000080E090E0A0E0B0E460E070E0EA14FB0478
:100710000C051D0540F0282B392B4A2B5B2BEA18C2
:10072000FB080C091D09B695A79597958795EE0CC2
:10073000FF1C001F111F6F5F7F4F6F31710531F775
:10074000DA01C9018F779070A070B0708034910584
:10075000A105B10561F427FD0AC0E114F10401050A
:10076000110529F0205C3F4F4F4F5F4F20782D87B8
:100770003E874F87588BBE01675F7F4FCB010E943A
:10078000A9046896EAE00C94AE14A8E1B0E0EBECA2
:10079000F3E00C94961469837A838B839C832D8376
:1007A0003E834F83588789E0E82EF12CEC0EFD1E26
:1007B000CE010196B7010E947E058E010F5E1F4F8C
:1007C000CE010596B8010E947E058985823040F0F1
:1007D0008989823028F0C701B8010E94F60501C05E
:1007E0008FEF6896E6E00C94B214A8E1B0E0EBEF6E
:1007F000F3E00C94961469837A838B839C832D8316
:100800003E834F83588789E0E82EF12CEC0EFD1EC5
:10081000CE010196B7010E947E058E010F5E1F4F2B
:10082000CE010596B8010E947E058985823040F090
:100830008989823028F0C701B8010E94F60501C0FD
:100840008FEF6896E6E00C94B214A8E1B0E0EBE21A
:10085000F4E00C94961469837A838B839C832D83B4
:100860003E834F83588789E0E82EF12CEC0EFD1E65
:10087000CE010196B7010E947E058E010F5E1F4FCB
:10088000CE010596B8010E947E058985823040F030
:100890008989823028F0C701B8010E94F60501C09D
:1008A00081E06896E6E00C94B214ACE0B0E0EBE5D1
:1008B000F4E00C949A1469837A838B839C83CE0131
:1008C0000196BE016B5F7F4F0E947E058D81823055
:1008D00061F1823050F1843021F48E81882351F10E
:1008E0002EC02F81388537FD20C06E812F31310514
:1008F0001CF06623F9F023C08EE190E0821B930B7D
:1009000029853A854B855C8504C056954795379572
:1009100027958A95D2F76623B1F05095409530958A
:1009200021953F4F4F4F5F4F0EC020E030E040E039
:1009300050E009C02FEF3FEF4FEF5FE704C020E02A
:1009400030E040E050E8B901CA012C96E2E00C9496
:10095000B614DF92EF92FF920F931F93FC01E48095
:10096000F58006811781D1808081823048F480E053
:1009700090E0A0E1B0E0E82AF92A0A2B1B2BA5C0E1
:10098000843009F49FC0823021F4EE24FF248701D3
:1009900005C0E114F1040105110519F4E0E0F0E0EF
:1009A00096C0628173819FEF623879070CF05BC05B
:1009B00022E83FEF261B370B2A3131052CF020E0CF
:1009C00030E040E050E02AC0B801A701022E04C088
:1009D00076956795579547950A94D2F781E090E010
:1009E000A0E0B0E004C0880F991FAA1FBB1F2A9582
:1009F000D2F70197A109B1098E219F21A023B1232C
:100A00000097A105B10521F081E090E0A0E0B0E001
:100A10009A01AB01282B392B4A2B5B2BDA01C90138
:100A20008F779070A070B07080349105A105B105EA
:100A300039F427FF09C0205C3F4F4F4F5F4F04C080
:100A4000215C3F4F4F4F5F4FE0E0F0E02030A0E0EF
:100A50003A07A0E04A07A0E45A0710F0E1E0F0E00E
:100A600079018A0127C06038710564F5FB01E158FE
:100A7000FF4FD801C7018F779070A070B07080349D
:100A80009105A105B10539F4E7FE0DC080E490E0C1
:100A9000A0E0B0E004C08FE390E0A0E0B0E0E80E9A
:100AA000F91E0A1F1B1F17FF05C016950795F7941F
:100AB000E794319687E016950795F794E7948A9521
:100AC000D1F705C0EE24FF248701EFEFF0E06E2F91
:100AD000679566276795902F9F77D794DD24D794E5
:100AE0008E2F8695492F462B582F5D29B701CA01B5
:100AF0001F910F91FF90EF90DF900895FC01DB01B3
:100B0000408151812281622F6F7770E0221F22275E
:100B1000221F9381892F880F822B282F30E0991F65
:100B20009927991F11969C93119721153105A9F5C5
:100B3000411551056105710511F482E037C082E865
:100B40009FEF13969C938E9312979A01AB0167E0E7
:100B5000220F331F441F551F6A95D1F783E08C93F2
:100B60000DC0220F331F441F551F12968D919C916B
:100B70001397019713969C938E931297203080E0E1
:100B8000380780E0480780E4580758F314962D93FF
:100B90003D934D935C93179708952F3F310579F45A
:100BA000411551056105710519F484E08C93089590
:100BB00064FF03C081E08C9312C01C9210C02F57B9
:100BC000304013963C932E93129783E08C9387E0EA
:100BD000440F551F661F771F8A95D1F770641496CE
:100BE0004D935D936D937C93179708951F93DC014C
:100BF000FB019C91923008F447C08081823008F458
:100C000043C0943051F411961C91843099F5818140
:100C1000682F70E0611B71093FC0843021F0923071
:100C200031F48230B9F18181882389F12DC0119688
:100C30001C9111978230F1F081811817D9F4129626
:100C40002D913C911397828193818217930794F0A1
:100C500028173907BCF014968D919D910D90BC9189
:100C6000A02D2481358146815781281739074A07ED
:100C70005B0718F4112341F00AC082179307A407F9
:100C8000B50740F4112319F061E070E005C06FEF83
:100C90007FEF02C060E070E0CB011F910895DF9309
:100CA000CF93CDB7DEB7A7E2B0E0E7E2F0E0808116
:100CB00080648C93A6E2B0E0E6E2F0E08081806898
:100CC0008C93A6E2B0E0E6E2F0E0808184608C9351
:100CD000A6E2B0E0E6E2F0E0808181608C93CF9103
:100CE000DF910895DF93CF930F92CDB7DEB789835D
:100CF000A7E2B0E0E7E2F0E08081807E8C93A7E29B
:100D0000B0E0E7E2F0E090818981892B8C93A6E244
:100D1000B0E0E6E2F0E0808180648C93E6E2F0E00F
:100D20008081882F90E0807190709595879595953A
:100D300087959595879595958795009779F3A6E280
:100D4000B0E0E6E2F0E0808180618C93E4E2F0E0E4
:100D5000808191810F90CF91DF910895DF93CF93A0
:100D600000D000D00F92CDB7DEB789836A834B8362
:100D70008981282F30E03D832C838C819D818130B7
:100D8000910509F446C02C813D81223031052CF4B7
:100D90008C819D81009771F0C7C02C813D812230EC
:100DA000310509F465C08C819D818330910509F47A
:100DB0008EC0BAC08B818823A1F4AAE3B0E0EAE335
:100DC000F0E08081482F8A81282F30E081E090E098
:100DD000022E02C0880F991F0A94E2F7809584239F
:100DE0008C938B81813009F09FC0AAE3B0E0EAE3E5
:100DF000F0E08081482F8A81282F30E081E090E068
:100E0000022E02C0880F991F0A94E2F7842B8C935C
:100E10008BC08B818823A1F4A7E3B0E0E7E3F0E087
:100E20008081482F8A81282F30E081E090E0022ED7
:100E300002C0880F991F0A94E2F7809584238C934F
:100E40008B81813009F070C0A7E3B0E0E7E3F0E008
:100E50008081482F8A81282F30E081E090E0022EA7
:100E600002C0880F991F0A94E2F7842B8C935CC010
:100E70008B818823A1F4A4E3B0E0E4E3F0E0808177
:100E8000482F8A81282F30E081E090E0022E02C0B6
:100E9000880F991F0A94E2F7809584238C938B81A5
:100EA000813009F041C0A4E3B0E0E4E3F0E08081E8
:100EB000482F8A81282F30E081E090E0022E02C086
:100EC000880F991F0A94E2F7842B8C932DC08B8195
:100ED0008823A1F4A1E3B0E0E1E3F0E08081482FB2
:100EE0008A81282F30E081E090E0022E02C0880F36
:100EF000991F0A94E2F7809584238C938B8181302B
:100F000099F4A1E3B0E0E1E3F0E08081482F8A8129
:100F1000282F30E081E090E0022E02C0880F991F58
:100F20000A94E2F7842B8C930F900F900F900F9000
:100F30000F90CF91DF910895DF93CF9300D000D031
:100F40000F92CDB7DEB789836A834B838981282FBF
:100F500030E03D832C838C819D818130910509F4A3
:100F600046C02C813D81223031052CF48C819D813D
:100F7000009771F0C7C02C813D812230310509F402
:100F800065C08C819D818330910509F48EC0BAC003
:100F90008B818823A1F4ABE3B0E0EBE3F0E0808148
:100FA000482F8A81282F30E081E090E0022E02C095
:100FB000880F991F0A94E2F7809584238C938B8184
:100FC000813009F09FC0ABE3B0E0EBE3F0E080815B
:100FD000482F8A81282F30E081E090E0022E02C065
:100FE000880F991F0A94E2F7842B8C938BC08B8116
:100FF0008823A1F4A8E3B0E0E8E3F0E08081482F83
:101000008A81282F30E081E090E0022E02C0880F14
:10101000991F0A94E2F7809584238C938B81813009
:1010200009F070C0A8E3B0E0E8E3F0E08081482F69
:101030008A81282F30E081E090E0022E02C0880FE4
:10104000991F0A94E2F7842B8C935CC08B818823D0
:10105000A1F4A5E3B0E0E5E3F0E08081482F8A81C8
:10106000282F30E081E090E0022E02C0880F991F07
:101070000A94E2F7809584238C938B81813009F068
:1010800041C0A5E3B0E0E5E3F0E08081482F8A812C
:10109000282F30E081E090E0022E02C0880F991FD7
:1010A0000A94E2F7842B8C932DC08B818823A1F4C2
:1010B000A2E3B0E0E2E3F0E08081482F8A81282FAC
:1010C00030E081E090E0022E02C0880F991F0A9460
:1010D000E2F7809584238C938B81813099F4A2E38D
:1010E000B0E0E2E3F0E08081482F8A81282F30E0F1
:1010F00081E090E0022E02C0880F991F0A94E2F767
:10110000842B8C930F900F900F900F900F90CF9196
:10111000DF910895DF93CF9300D000D00F92CDB729
:10112000DEB789836A838981282F30E03D832C8351
:101130004C815D8141305105B1F18C819D818230BE
:10114000910534F42C813D812115310571F085C064
:101150004C815D814230510509F443C08C819D81F1
:101160008330910509F45BC078C0E9E3F0E0808149
:10117000482F50E08A81282F30E081E090E002C0C3
:10118000880F991F2A95E2F79A01282339238A812B
:10119000882F90E0A90102C0559547958A95E2F7FE
:1011A000CA018B835CC0E6E3F0E08081482F50E009
:1011B0008A81282F30E081E090E002C0880F991FDB
:1011C0002A95E2F79A01282339238A81882F90E013
:1011D000A90102C0559547958A95E2F7CA018B830C
:1011E0003EC0E3E3F0E08081482F50E08A81282F61
:1011F00030E081E090E002C0880F991F2A95E2F765
:101200009A01282339238A81882F90E0A90102C0FE
:10121000559547958A95E2F7CA018B8320C0E0E394
:10122000F0E08081482F50E08A81282F30E081E073
:1012300090E002C0880F991F2A95E2F79A012823AF
:1012400039238A81882F90E0A90102C055954795DE
:101250008A95E2F7CA018B8302C059815B838B8137
:101260000F900F900F900F900F90CF91DF910895F6
:10127000DF93CF9300D000D0CDB7DEB789836A83E8
:101280008981282F30E03C832B838B819C818130A6
:101290009105D1F02B813C81223031052CF48B81DA
:1012A0009C81009761F01EC02B813C81223031056A
:1012B00081F08B819C818330910581F013C0EAE33A
:1012C000F0E08A8180830EC0E7E3F0E08A818083CA
:1012D00009C0E4E3F0E08A81808304C0E1E3F0E048
:1012E0008A8180830F900F900F900F90CF91DF91A4
:1012F0000895DF93CF9300D000D0CDB7DEB78983B8
:101300006A838981282F30E03C832B838B819C81E9
:1013100081309105D1F02B813C81223031052CF4B4
:101320008B819C81009761F01EC02B813C81223013
:10133000310581F08B819C818330910581F013C050
:10134000EBE3F0E08A8180830EC0E8E3F0E08A817D
:10135000808309C0E5E3F0E08A81808304C0E2E392
:10136000F0E08A8180830F900F900F900F90CF91C3
:10137000DF9108950F931F93DF93CF93CDB7DEB71F
:10138000C755D0400FB6F894DEBF0FBECDBFFE01EB
:10139000E95AFF4F8083A8E3B0E0E8E3F0E0808102
:1013A000982F9F70FE01E95AFF4F8081807F892B23
:1013B0008C93A8E3B0E0E8E3F0E080818E7F8C932B
:1013C000A8E3B0E0E8E3F0E0808182608C93FE0166
:1013D000ED5AFF4F80E090E0A0E8BFE38083918367
:1013E000A283B3838E01015B1F4FFE01ED5AFF4FB5
:1013F00060817181828193812BEA3AEA4AE250E46A
:101400000E941F02DC01CB01F80180839183A2833B
:10141000B383FE01E15BFF4F608171818281938123
:1014200020E030E040E85FE30E942504882334F4A4
:10143000FE01E25BFF4F81E08083E0C0FE01E15BE3
:10144000FF4F608171818281938120E030E04FE71E
:1014500053E40E94C50318160CF0C0C0FE01ED5AFB
:10146000FF4F608171818281938120E030E04AE703
:1014700054E40E941903DC01CB01FE01E65BFF4F3F
:1014800080839183A283B3838E010A5B1F4FFE0189
:10149000E65BFF4F608171818281938120E030E0C3
:1014A0004AEF54E40E941F02DC01CB01F801808363
:1014B0009183A283B383FE01EA5BFF4F6081718158
:1014C0008281938120E030E040E85FE30E942504C0
:1014D000882344F4FE01EC5BFF4F81E090E09183B0
:1014E000808364C0FE01EA5BFF4F6081718182816D
:1014F000938120E03FEF4FE757E40E94C5031816A1
:101500000CF043C0FE01E65BFF4F60817181828178
:10151000938120E030E040E251E40E941F02DC01B0
:10152000CB018E010C5B1F4FBC01CD010E94490015
:10153000DC01CB01F801918380831FC0FE01EE5BCB
:10154000FF4F88EC90E091838083FE01EE5BFF4FBC
:10155000808191810197F1F7FE01EE5BFF4F91834E
:101560008083DE01AC5BBF4FFE01EC5BFF4F8081EF
:101570009181019711969C938E93FE01EC5BFF4F36
:10158000808191810097D1F642C08E010C5B1F4F84
:10159000FE01EA5BFF4F60817181828193810E942D
:1015A0004900DC01CB01F80191838083DE01A05C5E
:1015B000BF4FFE01EC5BFF4F8081918111969C93A0
:1015C0008E93FE01E05CFF4F808191810197F1F7DE
:1015D000FE01E05CFF4F9183808319C08E01025BA6
:1015E0001F4FFE01E15BFF4F60817181828193811A
:1015F0000E944900DC01CB01F8018083FE01E25B1F
:10160000FF4F80818FAF8FAD8A95F1F78FAFA8E341
:10161000B0E0E8E3F0E080818D7F8C9380E090E0A3
:10162000A8E4B3E48BAF9CAFADAFBEAF6BAD7CAD08
:101630008DAD9EAD2BEA3AEA4AE250E40E941F02C9
:10164000DC01CB018FAB98AFA9AFBAAF6FA978AD72
:1016500089AD9AAD20E030E040E85FE30E942504C8
:1016600088231CF481E08EAB91C06FA978AD89AD61
:101670009AAD20E030E04FE753E40E94C50318160E
:101680000CF07BC06BAD7CAD8DAD9EAD20E030E04D
:101690004AE754E40E941903DC01CB018AAB9BABFF
:1016A000ACABBDAB6AA97BA98CA99DA920E030E0B9
:1016B0004AEF54E40E941F02DC01CB018EA79FA7D2
:1016C000A8ABB9AB6EA57FA588A999A920E030E0A9
:1016D00040E85FE30E94250488232CF481E090E039
:1016E0009DA78CA73FC06EA57FA588A999A920E0DA
:1016F0003FEF4FE757E40E94C50318164CF56AA95F
:101700007BA98CA99DA920E030E040E251E40E9431
:101710001F02DC01CB01BC01CD010E944900DC01AC
:10172000CB019DA78CA70FC088EC90E09BA78AA750
:101730008AA59BA50197F1F79BA78AA78CA59DA5D4
:1017400001979DA78CA78CA59DA5009769F724C03C
:101750006EA57FA588A999A90E944900DC01CB014B
:101760009DA78CA78CA59DA599A788A788A599A5B5
:101770000197F1F799A788A70FC06FA978AD89AD38
:101780009AAD0E944900DC01CB018EAB8EA98FA3DC
:101790008FA18A95F1F78FA3A8E3B0E0E8E3F0E02A
:1017A0008081282F2F70FE01E95AFF4F8081882FFA
:1017B00090E082959295907F9827807F9827822B42
:1017C0008C93A8E3B0E0E8E3F0E0808182608C9342
:1017D00080E090E0A0E8BFE38BA39CA3ADA3BEA3F1
:1017E0006BA17CA18DA19EA12BEA3AEA4AE250E4CA
:1017F0000E941F02DC01CB018F8F98A3A9A3BAA37B
:101800006F8D78A189A19AA120E030E040E85FE3E4
:101810000E94250488231CF481E08E8F91C06F8D77
:1018200078A189A19AA120E030E04FE753E40E941B
:10183000C50318160CF07BC06BA17CA18DA19EA1E5
:1018400020E030E04AE754E40E941903DC01CB01B8
:101850008A8F9B8FAC8FBD8F6A8D7B8D8C8D9D8D7C
:1018600020E030E04AEF54E40E941F02DC01CB018B
:101870008E8B9F8BA88FB98F6E897F89888D998D6C
:1018800020E030E040E85FE30E94250488232CF448
:1018900081E090E09D8B8C8B3FC06E897F89888D25
:1018A000998D20E03FEF4FE757E40E94C5031816DB
:1018B0004CF56A8D7B8D8C8D9D8D20E030E040E273
:1018C00051E40E941F02DC01CB01BC01CD010E944A
:1018D0004900DC01CB019D8B8C8B0FC088EC90E024
:1018E0009B8B8A8B8A899B890197F1F79B8B8A8BCB
:1018F0008C899D8901979D8B8C8B8C899D89009704
:1019000069F724C06E897F89888D998D0E9449006E
:10191000DC01CB019D8B8C8B8C899D89998B888B6D
:10192000888999890197F1F7998B888B0FC06F8D02
:1019300078A189A19AA10E944900DC01CB018E8F78
:101940008E8D8F878F858A95F1F78F87A8E3B0E01A
:10195000E8E3F0E080818D7F8C9380E090E0A0E070
:10196000B0E48B879C87AD87BE876B857C858D8532
:101970009E8520E030E04AEF54E40E941F02DC0123
:10198000CB018F839887A987BA876F8178858985EE
:101990009A8520E030E040E85FE30E942504882338
:1019A0002CF481E090E09E838D833FC06F81788529
:1019B00089859A8520E03FEF4FE757E40E94C503F1
:1019C00018164CF56B857C858D859E8520E030E072
:1019D00040E251E40E941F02DC01CB01BC01CD01B9
:1019E0000E944900DC01CB019E838D830FC088ECEF
:1019F00090E09C838B838B819C810197F1F79C8382
:101A00008B838D819E8101979E838D838D819E81A5
:101A1000009769F714C06F81788589859A850E943F
:101A20004900DC01CB019E838D838D819E819A8349
:101A3000898389819A810197F1F79A838983C95AA9
:101A4000DF4F0FB6F894DEBF0FBECDBFCF91DF9151
:101A50001F910F9108950F931F93DF93CF93CDB7ED
:101A6000DEB7C755D0400FB6F894DEBF0FBECDBF6E
:101A7000FE01E95AFF4F8083A8E3B0E0E8E3F0E01D
:101A80008081982F9F70FE01E95AFF4F8081807FEF
:101A9000892B8C93A8E3B0E0E8E3F0E080818160DB
:101AA0008C93A8E3B0E0E8E3F0E0808182608C935F
:101AB000FE01ED5AFF4F80E090E0A0E8BFE3808395
:101AC0009183A283B3838E01015B1F4FFE01ED5A08
:101AD000FF4F60817181828193812BEA3AEA4AE269
:101AE00050E40E941F02DC01CB01F8018083918346
:101AF000A283B383FE01E15BFF4F6081718182812C
:101B0000938120E030E040E85FE30E9425048823D1
:101B100034F4FE01E25BFF4F81E08083E0C0FE0110
:101B2000E15BFF4F608171818281938120E030E031
:101B30004FE753E40E94C50318160CF0C0C0FE0125
:101B4000ED5AFF4F608171818281938120E030E006
:101B50004AE754E40E941903DC01CB01FE01E65B75
:101B6000FF4F80839183A283B3838E010A5B1F4F53
:101B7000FE01E65BFF4F608171818281938120E0ED
:101B800030E04AEF54E40E941F02DC01CB01F8016F
:101B900080839183A283B383FE01EA5BFF4F608160
:101BA00071818281938120E030E040E85FE30E9410
:101BB0002504882344F4FE01EC5BFF4F81E090E0B4
:101BC0009183808364C0FE01EA5BFF4F6081718175
:101BD0008281938120E03FEF4FE757E40E94C503E5
:101BE00018160CF043C0FE01E65BFF4F6081718167
:101BF0008281938120E030E040E251E40E941F02A4
:101C0000DC01CB018E010C5B1F4FBC01CD010E949A
:101C10004900DC01CB01F801918380831FC0FE01E4
:101C2000EE5BFF4F88EC90E091838083FE01EE5BDA
:101C3000FF4F808191810197F1F7FE01EE5BFF4F2D
:101C400091838083DE01AC5BBF4FFE01EC5BFF4FF5
:101C500080819181019711969C938E93FE01EC5B9C
:101C6000FF4F808191810097D1F642C08E010C5BBD
:101C70001F4FFE01EA5BFF4F60817181828193817A
:101C80000E944900DC01CB01F80191838083DE01D1
:101C9000A05CBF4FFE01EC5BFF4F808191811196EC
:101CA0009C938E93FE01E05CFF4F808191810197B0
:101CB000F1F7FE01E05CFF4F9183808319C08E0134
:101CC000025B1F4FFE01E15BFF4F608171818281EA
:101CD00093810E944900DC01CB01F8018083FE0161
:101CE000E25BFF4F80818FAF8FAD8A95F1F78FAFA9
:101CF000A8E3B0E0E8E3F0E080818D7F8C9380E0A2
:101D000090E0A8E4B3E48BAF9CAFADAFBEAF6BADDA
:101D10007CAD8DAD9EAD2BEA3AEA4AE250E40E94DA
:101D20001F02DC01CB018FAB98AFA9AFBAAF6FA98F
:101D300078AD89AD9AAD20E030E040E85FE30E94E5
:101D4000250488231CF481E08EAB91C06FA978AD87
:101D500089AD9AAD20E030E04FE753E40E94C5031F
:101D600018160CF07BC06BAD7CAD8DAD9EAD20E048
:101D700030E04AE754E40E941903DC01CB018AAB4E
:101D80009BABACABBDAB6AA97BA98CA99DA920E09C
:101D900030E04AEF54E40E941F02DC01CB018EA721
:101DA0009FA7A8ABB9AB6EA57FA588A999A920E08C
:101DB00030E040E85FE30E94250488232CF481E0B2
:101DC00090E09DA78CA73FC06EA57FA588A999A983
:101DD00020E03FEF4FE757E40E94C50318164CF58B
:101DE0006AA97BA98CA99DA920E030E040E251E4DA
:101DF0000E941F02DC01CB01BC01CD010E94490001
:101E0000DC01CB019DA78CA70FC088EC90E09BA7BD
:101E10008AA78AA59BA50197F1F79BA78AA78CA5FE
:101E20009DA501979DA78CA78CA59DA5009769F7F7
:101E300024C06EA57FA588A999A90E944900DC014C
:101E4000CB019DA78CA78CA59DA599A788A788A540
:101E500099A50197F1F799A788A70FC06FA978AD49
:101E600089AD9AAD0E944900DC01CB018EAB8EA9F1
:101E70008FA38FA18A95F1F78FA3A8E3B0E0E8E3E1
:101E8000F0E08081282F2F70FE01E95AFF4F8081FA
:101E9000882F90E082959295907F9827807F982751
:101EA000822B8C93A8E3B0E0E8E3F0E080818260CD
:101EB0008C9380E090E0A0E8BFE38BA39CA3ADA34C
:101EC000BEA36BA17CA18DA19EA12BEA3AEA4AE2B6
:101ED00050E40E941F02DC01CB018F8F98A3A9A3BD
:101EE000BAA36F8D78A189A19AA120E030E040E8E3
:101EF0005FE30E94250488231CF481E08E8F91C04B
:101F00006F8D78A189A19AA120E030E04FE753E4DA
:101F10000E94C50318160CF07BC06BA17CA18DA19B
:101F20009EA120E030E04AE754E40E941903DC015E
:101F3000CB018A8F9B8FAC8FBD8F6A8D7B8D8C8DF3
:101F40009D8D20E030E04AEF54E40E941F02DC0146
:101F5000CB018E8B9F8BA88FB98F6E897F89888DDF
:101F6000998D20E030E040E85FE30E94250488235B
:101F70002CF481E090E09D8B8C8B3FC06E897F8933
:101F8000888D998D20E03FEF4FE757E40E94C5030D
:101F900018164CF56A8D7B8D8C8D9D8D20E030E080
:101FA00040E251E40E941F02DC01CB01BC01CD01E3
:101FB0000E944900DC01CB019D8B8C8B0FC088EC0B
:101FC00090E09B8B8A8B8A899B890197F1F79B8B89
:101FD0008A8B8C899D8901979D8B8C8B8C899D899F
:101FE000009769F724C06E897F89888D998D0E943A
:101FF0004900DC01CB019D8B8C8B8C899D89998B51
:10200000888B888999890197F1F7998B888B0FC004
:102010006F8D78A189A19AA10E944900DC01CB01B2
:102020008E8F8E8D8F878F858A95F1F78F87A8E3A6
:10203000B0E0E8E3F0E080818D7F8C9380E090E079
:10204000A0E0B0E48B879C87AD87BE876B857C85DD
:102050008D859E8520E030E04AEF54E40E941F0207
:10206000DC01CB018F839887A987BA876F81788538
:1020700089859A8520E030E040E85FE30E942504EE
:1020800088232CF481E090E09E838D833FC06F8194
:10209000788589859A8520E03FEF4FE757E40E94D5
:1020A000C50318164CF56B857C858D859E8520E0D3
:1020B00030E040E251E40E941F02DC01CB01BC0190
:1020C000CD010E944900DC01CB019E838D830FC0AE
:1020D00088EC90E09C838B838B819C810197F1F746
:1020E0009C838B838D819E8101979E838D838D81BF
:1020F0009E81009769F714C06F81788589859A85DC
:102100000E944900DC01CB019E838D838D819E81DD
:102110009A83898389819A810197F1F79A838983C8
:10212000C95ADF4F0FB6F894DEBF0FBECDBFCF91B7
:10213000DF911F910F910895DF93CF93CDB7DEB755
:102140006C970FB6F894DEBF0FBECDBFE7E3F0E0AB
:102150008FEF808380E090E0A0EAB1E4898F9A8FCE
:10216000AB8FBC8F698D7A8D8B8D9C8D20E030E09C
:102170004AEF54E40E941F02DC01CB018D8B9E8B41
:10218000AF8BB88F6D897E898F89988D20E030E084
:1021900040E85FE30E94250488232CF481E090E06E
:1021A0009C8B8B8B3FC06D897E898F89988D20E0B9
:1021B0003FEF4FE757E40E94C50318164CF5698DB1
:1021C0007A8D8B8D9C8D20E030E040E251E40E94BE
:1021D0001F02DC01CB01BC01CD010E944900DC01E2
:1021E000CB019C8B8B8B0FC088EC90E09A8B898BFA
:1021F00089899A890197F1F79A8B898B8B899C89B8
:1022000001979C8B8B8B8B899C89009769F714C0F5
:102210006D897E898F89988D0E944900DC01CB01F0
:102220009C8B8B8B8B899C89988B8F878F859889CA
:102230000197F1F7988B8F8782E00E94BA0988E2B4
:102240000E94BA098CE00E94BA0986E00E94BA098D
:1022500081E00E94BA0980E090E0A0E0B0E48B87C2
:102260009C87AD87BE876B857C858D859E8520E0AC
:1022700030E04AEF54E40E941F02DC01CB018F835F
:102280009887A987BA876F81788589859A8520E0A4
:1022900030E040E85FE30E94250488232CF481E0CD
:1022A00090E09E838D833FC06F81788589859A8574
:1022B00020E03FEF4FE757E40E94C50318164CF5A6
:1022C0006B857C858D859E8520E030E040E251E481
:1022D0000E941F02DC01CB01BC01CD010E9449001C
:1022E000DC01CB019E838D830FC088EC90E09C8342
:1022F0008B838B819C810197F1F79C838B838D81EC
:102300009E8101979E838D838D819E81009769F7C1
:1023100014C06F81788589859A850E944900DC0107
:10232000CB019E838D838D819E819A838983898150
:102330009A810197F1F79A8389836C960FB6F89486
:10234000DEBF0FBECDBFCF91DF910895DF93CF9356
:1023500000D000D0CDB7DEB79C838B831A82198260
:102360000FC029813A818B819C81FC01E20FF31F10
:1023700080810E942B0D89819A8101969A8389839D
:1023800029813A818B819C81FC01E20FF31F8081BE
:10239000882339F70F900F900F900F90CF91DF9116
:1023A0000895DF93CF9300D000D0CDB7DEB78983F7
:1023B0006A838A818823E1F08A818131C8F4898126
:1023C000282F30E03C832B838B819C8181309105C9
:1023D00031F02B813C812230310531F009C08A81F6
:1023E00081580E94BA0904C08A8181540E94BA09A6
:1023F0000F900F900F900F90CF91DF910895DF9382
:10240000CF9300D000D0CDB7DEB789836A835C83D9
:102410004B838981882349F48A81803130F48A8111
:102420008F7080680E94BA090BC08981813041F4A5
:102430008A81803128F48A818F70806C0E94BA0969
:102440008B819C810E94A6110F900F900F900F908E
:10245000CF91DF910895DF93CF93CDB7DEB72E975D
:102460000FB6F894DEBF0FBECDBF81E00E94BA095F
:1024700080E090E0A0E0B0E48B879C87AD87BE87CA
:102480006B857C858D859E8520E030E04AEF54E4A5
:102490000E941F02DC01CB018F839887A987BA872E
:1024A0006F81788589859A8520E030E040E85FE398
:1024B0000E94250488232CF481E090E09E838D8384
:1024C0003FC06F81788589859A8520E03FEF4FE78F
:1024D00057E40E94C50318164CF56B857C858D85E5
:1024E0009E8520E030E040E251E40E941F02DC01C2
:1024F000CB01BC01CD010E944900DC01CB019E83D0
:102500008D830FC088EC90E09C838B838B819C81B2
:102510000197F1F79C838B838D819E8101979E8328
:102520008D838D819E81009769F714C06F817885B6
:1025300089859A850E944900DC01CB019E838D83A9
:102540008D819E819A83898389819A810197F1F790
:102550009A83898380E80E94BA092E960FB6F89470
:10256000DEBF0FBECDBFCF91DF910895DF93CF9334
:10257000CDB7DEB764970FB6F894DEBF0FBECDBF00
:10258000698B7A8B8B8B9C8B89899A89AB89BC8967
:102590008A309105A105B10520F48989805D0E94EA
:1025A0002B0D89899A89AB89BC898A309105A1054F
:1025B000B105A8F189899A89AB89BC8984369105CE
:1025C000A105B10560F589899A89AB89BC892AE0A2
:1025D00030E040E050E0BC01CD010E946814DA0117
:1025E000C9018D879E87AF87B88B89899A89AB8906
:1025F000BC892AE030E040E050E0BC01CD010E94FF
:102600006814DC01CB0189879A87AB87BC878D85ED
:10261000805D0E942B0D8985805D0E942B0D89892C
:102620009A89AB89BC8984369105A105B10508F466
:1026300061C089899A89AB89BC89883E23E0920769
:1026400020E0A20720E0B20708F054C089899A89E7
:10265000AB89BC892AE030E040E050E0BC01CD010C
:102660000E946814DA01C9018D879E87AF87B88BF5
:102670008D859E85AF85B8892AE030E040E050E046
:10268000BC01CD010E946814DC01CB0189879A87C7
:10269000AB87BC8789859A85AB85BC852AE030E00D
:1026A00040E050E0BC01CD010E946814DA01C9018C
:1026B0008D839E83AF83B88789859A85AB85BC85DA
:1026C0002AE030E040E050E0BC01CD010E946814F7
:1026D000DC01CB0189839A83AB83BC838D85805DCC
:1026E0000E942B0D8D81805D0E942B0D8981805D64
:1026F0000E942B0D64960FB6F894DEBF0FBECDBFBF
:10270000CF91DF910895DF93CF93CDB7DEB7629776
:102710000FB6F894DEBF0FBECDBF0E949C100E9482
:102720004F0680E00E9472069093810080938000A3
:1027300081E00E94720690937F0080937E0020913A
:1027400080003091810084EF91E0AC01249FC001B2
:10275000259F900D349F900D11242FEF33E0B90188
:102760000E945414CB019A8B898B80917E009091AA
:102770007F009695879596958795988B8F8781E0B2
:1027800061E00E94D11180E690E00E94A611898943
:102790009A89CC01A0E0B0E0BC01CD010E94B61244
:1027A00082E061E00E94D1118EE690E00E94A611C5
:1027B0008F859889CC01A0E0B0E0BC01CD010E94DA
:1027C000B61280E090E0AAE7B4E48B879C87AD87DF
:1027D000BE876B857C858D859E8520E030E04AEF45
:1027E00054E40E941F02DC01CB018F839887A987E4
:1027F000BA876F81788589859A8520E030E040E846
:102800005FE30E94250488232CF481E090E09E83FE
:102810008D833FC06F81788589859A8520E03FEF61
:102820004FE757E40E94C50318164CF56B857C856D
:102830008D859E8520E030E040E251E40E941F0239
:10284000DC01CB01BC01CD010E944900DC01CB01C0
:102850009E838D830FC088EC90E09C838B838B815B
:102860009C810197F1F79C838B838D819E810197D9
:102870009E838D838D819E81009769F752CF6F81F2
:10288000788589859A850E944900DC01CB019E8369
:102890008D838D819E819A83898389819A81019715
:1028A000F1F79A8389833DCFAA1BBB1B51E107C077
:1028B000AA1FBB1FA617B70710F0A61BB70B881FD0
:1028C000991F5A95A9F780959095BC01CD0108955F
:1028D000A1E21A2EAA1BBB1BFD010DC0AA1FBB1F24
:1028E000EE1FFF1FA217B307E407F50720F0A21B96
:1028F000B30BE40BF50B661F771F881F991F1A9403
:1029000069F760957095809590959B01AC01BD012C
:10291000CF0108952F923F924F925F926F927F92D4
:102920008F929F92AF92BF92CF92DF92EF92FF92DF
:102930000F931F93CF93DF93CDB7DEB7CA1BDB0B8B
:102940000FB6F894DEBF0FBECDBF09942A88398830
:1029500048885F846E847D848C849B84AA84B98437
:10296000C884DF80EE80FD800C811B81AA81B98143
:10297000CE0FD11D0FB6F894DEBF0FBECDBFED0157
:062980000895F894FFCF5A
:1029860074656D70657261747572652020006C697E
:0E2996006768742000000000000000000000D0
:00000001FF
