:100000000C942A000C943C000C943C000C943C0092
:100010000C943C000C943C000C9470040C943C0038
:100020000C943C000C944D050C943C000C943C004A
:100030000C943C000C943C000C943C000C943C0050
:100040000C943C000C943C000C943C000C943C0040
:100050000C943C0011241FBECFE5D8E0DEBFCDBF1D
:1000600010E0A0E6B0E001C01D92A537B107E1F7AE
:100070000E9426040C9497050C940000DF93CF9304
:10008000CDB7DEB7A7E2B0E0E7E2F0E080818064C0
:100090008C93A6E2B0E0E6E2F0E0808180688C9389
:1000A000A6E2B0E0E6E2F0E0808184608C93A6E214
:1000B000B0E0E6E2F0E0808181608C93CF91DF9147
:1000C0000895DF93CF930F92CDB7DEB78983A7E270
:1000D000B0E0E7E2F0E08081807E8C93A7E2B0E0C0
:1000E000E7E2F0E090818981892B8C93A6E2B0E071
:1000F000E6E2F0E0808180648C93E6E2F0E08081CB
:10010000882F90E08071907095958795959587954B
:100110009595879595958795009779F3A6E2B0E038
:10012000E6E2F0E0808180618C93E4E2F0E080819F
:1001300091810F90CF91DF910895DF93CF9300D0FD
:1001400000D00F92CDB7DEB789836A834B83898154
:10015000282F30E03D832C838C819D818130910557
:1001600009F446C02C813D81223031052CF48C816C
:100170009D81009771F0C7C02C813D8122303105EF
:1001800009F465C08C819D818330910509F48EC08E
:10019000BAC08B818823A1F4AAE3B0E0EAE3F0E0DF
:1001A0008081482F8A81282F30E081E090E0022E64
:1001B00002C0880F991F0A94E2F7809584238C93DC
:1001C0008B81813009F09FC0AAE3B0E0EAE3F0E060
:1001D0008081482F8A81282F30E081E090E0022E34
:1001E00002C0880F991F0A94E2F7842B8C938BC06E
:1001F0008B818823A1F4A7E3B0E0E7E3F0E08081FE
:10020000482F8A81282F30E081E090E0022E02C042
:10021000880F991F0A94E2F7809584238C938B8131
:10022000813009F070C0A7E3B0E0E7E3F0E080813F
:10023000482F8A81282F30E081E090E0022E02C012
:10024000880F991F0A94E2F7842B8C935CC08B81F2
:100250008823A1F4A4E3B0E0E4E3F0E08081482F38
:100260008A81282F30E081E090E0022E02C0880FC2
:10027000991F0A94E2F7809584238C938B818130B7
:1002800009F041C0A4E3B0E0E4E3F0E08081482F4E
:100290008A81282F30E081E090E0022E02C0880F92
:1002A000991F0A94E2F7842B8C932DC08B818823AD
:1002B000A1F4A1E3B0E0E1E3F0E08081482F8A817E
:1002C000282F30E081E090E0022E02C0880F991FB5
:1002D0000A94E2F7809584238C938B81813099F482
:1002E000A1E3B0E0E1E3F0E08081482F8A81282F8C
:1002F00030E081E090E0022E02C0880F991F0A943E
:10030000E2F7842B8C930F900F900F900F900F902B
:10031000CF91DF910895DF93CF9300D000D00F925B
:10032000CDB7DEB789836A834B838981282F30E07C
:100330003D832C838C819D818130910509F446C0D9
:100340002C813D81223031052CF48C819D810097D8
:1003500071F0C7C02C813D812230310509F465C0A0
:100360008C819D818330910509F48EC0BAC08B8148
:100370008823A1F4ABE3B0E0EBE3F0E08081482F09
:100380008A81282F30E081E090E0022E02C0880FA1
:10039000991F0A94E2F7809584238C938B81813096
:1003A00009F09FC0ABE3B0E0EBE3F0E08081482FC1
:1003B0008A81282F30E081E090E0022E02C0880F71
:1003C000991F0A94E2F7842B8C938BC08B8188232E
:1003D000A1F4A8E3B0E0E8E3F0E08081482F8A814F
:1003E000282F30E081E090E0022E02C0880F991F94
:1003F0000A94E2F7809584238C938B81813009F0F5
:1004000070C0A8E3B0E0E8E3F0E08081482F8A8183
:10041000282F30E081E090E0022E02C0880F991F63
:100420000A94E2F7842B8C935CC08B818823A1F41F
:10043000A5E3B0E0E5E3F0E08081482F8A81282F32
:1004400030E081E090E0022E02C0880F991F0A94EC
:10045000E2F7809584238C938B81813009F041C031
:10046000A5E3B0E0E5E3F0E08081482F8A81282F02
:1004700030E081E090E0022E02C0880F991F0A94BC
:10048000E2F7842B8C932DC08B818823A1F4A2E307
:10049000B0E0E2E3F0E08081482F8A81282F30E04D
:1004A00081E090E0022E02C0880F991F0A94E2F7C3
:1004B000809584238C938B81813099F4A2E3B0E002
:1004C000E2E3F0E08081482F8A81282F30E081E04C
:1004D00090E0022E02C0880F991F0A94E2F7842B45
:1004E0008C930F900F900F900F900F90CF91DF9102
:1004F0000895DF93CF9300D000D0CDB7DEB78983C6
:100500006A838981282F30E03C832B838B819C81F7
:100510008130910549F12B813C81223031052CF449
:100520008B819C81009761F05AC02B813C812230E5
:10053000310571F18B819C8183309105E9F14FC0C8
:10054000ABE3B0E0EBE3F0E08081482F8A81282F15
:1005500030E081E090E0022E02C0880F991F0A94DB
:10056000E2F784278C933BC0A8E3B0E0E8E3F0E037
:100570008081482F8A81282F30E081E090E0022E90
:1005800002C0880F991F0A94E2F784278C9327C032
:10059000A5E3B0E0E5E3F0E08081482F8A81282FD1
:1005A00030E081E090E0022E02C0880F991F0A948B
:1005B000E2F784278C9313C0A2E3B0E0E2E3F0E01B
:1005C0008081482F8A81282F30E081E090E0022E40
:1005D00002C0880F991F0A94E2F784278C930F902A
:1005E0000F900F900F90CF91DF910895DF93CF93ED
:1005F00000D000D00F92CDB7DEB789836A8389819E
:10060000282F30E03D832C834C815D8141305105A2
:10061000B1F18C819D818230910534F42C813D8132
:100620002115310571F085C04C815D814230510545
:1006300009F443C08C819D818330910509F45BC02E
:1006400078C0E9E3F0E08081482F50E08A81282FCC
:1006500030E081E090E002C0880F991F2A95E2F710
:100660009A01282339238A81882F90E0A90102C0AA
:10067000559547958A95E2F7CA018B835CC0E6E3FE
:10068000F0E08081482F50E08A81282F30E081E01F
:1006900090E002C0880F991F2A95E2F79A0128235B
:1006A00039238A81882F90E0A90102C0559547958A
:1006B0008A95E2F7CA018B833EC0E3E3F0E08081D4
:1006C000482F50E08A81282F30E081E090E002C07E
:1006D000880F991F2A95E2F79A01282339238A81E6
:1006E000882F90E0A90102C0559547958A95E2F7B9
:1006F000CA018B8320C0E0E3F0E08081482F50E006
:100700008A81282F30E081E090E002C0880F991F95
:100710002A95E2F79A01282339238A81882F90E0CD
:10072000A90102C0559547958A95E2F7CA018B83C6
:1007300002C059815B838B810F900F900F900F90B7
:100740000F90CF91DF910895DF93CF9300D000D029
:10075000CDB7DEB789836A838981282F30E03C8357
:100760002B838B819C8181309105D1F02B813C8141
:10077000223031052CF48B819C81009761F01EC0E2
:100780002B813C812230310581F08B819C8183302B
:10079000910581F013C0EAE3F0E08A8180830EC006
:1007A000E7E3F0E08A81808309C0E4E3F0E08A8136
:1007B000808304C0E1E3F0E08A8180830F900F9092
:1007C0000F900F90CF91DF910895DF93CF9300D0DA
:1007D00000D0CDB7DEB789836A838981282F30E0C6
:1007E0003C832B838B819C8181309105D1F02B81BF
:1007F0003C81223031052CF48B819C81009761F083
:100800001EC02B813C812230310581F08B819C817F
:100810008330910581F013C0EBE3F0E08A8180839F
:100820000EC0E8E3F0E08A81808309C0E5E3F0E0F0
:100830008A81808304C0E2E3F0E08A8180830F90A4
:100840000F900F900F90CF91DF9108950F931F930A
:10085000DF93CF93CDB7DEB781E063E041E00E9444
:100860009D000E943E000E943D040CE510E080E0E7
:100870000E946100F8018083F8CFDF93CF93CDB75A
:10088000DEB7E3E5F0E08DE68083CF91DF91089558
:10089000DF93CF93CDB7DEB7EFE4F0E01082EEE464
:1008A000F0E081E48083A9E5B0E0E9E5F0E0808153
:1008B00080628C93A9E5B0E0E9E5F0E08081846096
:1008C0008C93AFE5B0E0EFE5F0E0808180688C9339
:1008D00083E066E040E00E949D00CF91DF910895A3
:1008E0001F920F920FB60F921124EF92FF920F9367
:1008F0001F932F933F934F935F936F937F938F93A8
:100900009F93AF93BF93EF93FF93DF93CF93CDB7B5
:10091000DEB7809170008823F1F4E6E4F0E0808196
:10092000882F90E0A0E0B0E0809364009093650091
:10093000A0936600B093670010926000109261006F
:100940001092620010926300AEE4B0E0EEE4F0E0DA
:1009500080818F7B8C9380917000813061F5E6E41B
:10096000F0E08081E82EFF2400E010E0809160003C
:1009700090916100A0916200B09163002FEF3FEF72
:1009800040E050E0BC01CD010E947805DC01CB01C4
:100990008E0D9F1DA01FB11F80936800909369006A
:1009A000A0936A00B0936B00AEE4B0E0EEE4F0E038
:1009B000808180648C9380917000823009F051C0F6
:1009C000E6E4F0E08081E82EFF2400E010E0809172
:1009D000600090916100A0916200B09163002FEFE0
:1009E0003FEF40E050E0BC01CD010E947805DC0102
:1009F000CB018E0D9F1DA01FB11F80936C009093A3
:100A00006D00A0936E00B0936F00E6E4F0E080818B
:100A1000E82EFF2400E010E08091600090916100DA
:100A2000A0916200B09163002FEF3FEF40E050E0F3
:100A3000BC01CD010E947805DC01CB018E0D9F1D0C
:100A4000A01FB11F8093600090936100A09362008B
:100A5000B0936300A9E5B0E0E9E5F0E080818F7D27
:100A60008C93809170008F5F80937000CF91DF91A5
:100A7000FF91EF91BF91AF919F918F917F916F9176
:100A80005F914F913F912F911F910F91FF90EF90A8
:100A90000F900FBE0F901F9018951F920F920FB6D8
:100AA0000F9211248F939F93AF93BF93DF93CF93B4
:100AB000CDB7DEB78091600090916100A091620097
:100AC000B09163000196A11DB11D809360009093C9
:100AD0006100A0936200B0936300CF91DF91BF915A
:100AE000AF919F918F910F900FBE0F901F9018950F
:100AF000629FD001739FF001829FE00DF11D649F02
:100B0000E00DF11D929FF00D839FF00D749FF00D8D
:100B1000659FF00D9927729FB00DE11DF91F639F2E
:100B2000B00DE11DF91FBD01CF0111240895F89406
:020B3000FFCFF5
:00000001FF
