:100000000C942A000C9447000C9447000C94470071
:100010000C9447000C9447000C9447000C94470044
:100020000C9447000C9447000C9447000C94470034
:100030000C9447000C9447000C9447000C94470024
:100040000C9447000C9447000C9447000C94470014
:100050000C94470011241FBECFE5D8E0DEBFCDBF12
:1000600011E0A0E6B0E0EEE7FCE202C005900D92E0
:10007000AA3BB107D9F711E0AAEBB1E001C01D928C
:10008000AD3BB107E1F70E94FC060C943D160C94C1
:100090000000EF92FF920F931F937B018C0120E0F1
:1000A00030E040E05FE40E94F50388238CF0C80153
:1000B000B70120E030E040E05FE40E94C1010E940F
:1000C000B3049B01AC01205030404040504806C072
:1000D000C801B7010E94B3049B01AC01B901CA0178
:1000E0001F910F91FF90EF900895A0E0B0E0EBE733
:1000F000F0E00C940616DC012B01FA019C91923081
:1001000008F439C1EB018881823008F433C194309E
:1001100069F4843009F02FC111969C91119789815F
:10012000981709F428C1A1EBB0E025C1843009F487
:1001300021C18230A9F4923009F01DC19A01AD01AC
:1001400088E0EA010990AE01E90109929E0181501F
:10015000C1F7E201898111969C918923818308C1AD
:10016000923009F407C112962D903C901397EB0141
:100170008A819B811496AD90BD90CD90DC901797AD
:10018000EC80FD800E811F819101281B390BB90184
:1001900037FF04C066277727621B730B6032710537
:1001A0000CF061C0121613066CF537014801062EDB
:1001B00004C096948794779467940A94D2F721E0C8
:1001C00030E040E050E004C0220F331F441F551FB1
:1001D0006A95D2F721503040404050402E213F21B7
:1001E00040235123211531054105510521F021E01E
:1001F00030E040E050E079018A01E628F72808293C
:1002000019293CC0232BD1F1260E371E350146019A
:10021000062E04C096948794779467940A94D2F734
:1002200021E030E040E050E004C0220F331F441FC3
:10023000551F6A95D2F721503040404050402A2146
:100240003B214C215D21211531054105510521F04E
:1002500021E030E040E050E059016A01A628B728CB
:10026000C828D9280BC0821593052CF01C01AA249C
:10027000BB24650103C0EE24FF24870111969C91E5
:10028000D20111968C91981709F445C0992339F041
:10029000A80197012A193B094C095D0906C0A6016E
:1002A00095012E193F09400B510B57FD08C01182D3
:1002B0003382228224833583468357831DC081E0A5
:1002C00081833382228288279927DC01821B930B4A
:1002D000A40BB50B84839583A683B7830DC0220F2F
:1002E000331F441F551F24833583468357838281E0
:1002F000938101979383828324813581468157813D
:10030000DA01C9010197A109B1098F5F9F4FAF4F72
:10031000BF4328F30BC0918333822282EA0CFB1C7B
:100320000C1D1D1DE482F5820683178383E0808304
:10033000248135814681578157FF1AC0C901AA27F8
:1003400097FDA095BA2F81709070A070B0705695EF
:10035000479537952795822B932BA42BB52B848318
:100360009583A683B7838281938101969383828349
:10037000DF0101C0D201CD01CDB7DEB7E2E10C94BF
:100380002216A0E2B0E0E7ECF1E00C9412166983CB
:100390007A838B839C832D833E834F835887E9E048
:1003A000EE2EF12CEC0EFD1ECE010196B7010E943F
:1003B0002B068E010F5E1F4FCE010596B8010E94DD
:1003C0002B068A8991E089278A8BC701B801AE0183
:1003D000475E5F4F0E9475000E945605A096E6E0BA
:1003E0000C942E16A0E2B0E0E8EFF1E00C941216A7
:1003F00069837A838B839C832D833E834F835887C5
:10040000F9E0EF2EF12CEC0EFD1ECE010196B701A6
:100410000E942B068E010F5E1F4FCE010596B8017C
:100420000E942B06C701B801AE01475E5F4F0E94D4
:1004300075000E945605A096E6E00C942E16A0E2E8
:10044000B0E0E5E2F2E00C94061669837A838B83D0
:100450009C832D833E834F835887CE010196BE0136
:10046000675F7F4F0E942B06CE010596BE016F5E2F
:100470007F4F0E942B069985923088F089898230BF
:10048000C8F0943019F4823051F404C0843029F457
:10049000923081F481EB90E0C6C0923049F420E0C4
:1004A0009A858A89981321E02A87CE010996BBC0D4
:1004B000823049F420E09A858A89981321E02A8BBA
:1004C000CE014196B0C02D843E844F8458886D88FB
:1004D0007E888F88988CEE24FF248701AA24BB2471
:1004E000650140E050E060E070E0E0E0F0E0C10174
:1004F00081709070892BE9F0E60CF71C081D191D1E
:100500009A01AB012A0D3B1D4C1D5D1D80E090E062
:10051000A0E0B0E0E614F7040805190520F481E036
:1005200090E0A0E0B0E0BA01A901480F591F6A1F8E
:100530007B1FAA0CBB1CCC1CDD1C97FE08C081E0F5
:1005400090E0A0E0B0E0A82AB92ACA2ADB2A3196B6
:10055000E032F10549F0660C771C881C991C569412
:10056000479437942794C3CFFA85EA892B893C892D
:100570008B859C85280F391F2E5F3F4F17C0CA01FE
:1005800081709070892B61F016950795F794E79428
:1005900080E090E0A0E0B0E8E82AF92A0A2B1B2BC3
:1005A00076956795579547952F5F3F4F77FDE7CF36
:1005B0000CC0440F551F661F771F17FD4160EE0CDE
:1005C000FF1C001F111F21503040403090E05907A0
:1005D00090E0690790E4790760F32B8F3C8FDB0193
:1005E000CA018F779070A070B07080349105A1051A
:1005F000B10561F447FD0AC0E114F10401051105DC
:1006000029F0405C5F4F6F4F7F4F40781A8EFE1786
:1006100011F081E08A8F4D8F5E8F6F8F78A383E01A
:10062000898FCE0149960E945605A096E2E10C946E
:100630002216A8E1B0E0EFE1F3E00C940E16698316
:100640007A838B839C832D833E834F835887B9E0C5
:10065000EB2EF12CEC0EFD1ECE010196B7010E948F
:100660002B068E010F5E1F4FCE010596B8010E942A
:100670002B062985223008F47EC03989323010F4E7
:10068000B8017CC08A859A8989278A87243011F02D
:10069000223031F4231709F06EC061EB70E06EC0B8
:1006A000343039F41D861E861F86188A1C861B86E8
:1006B00004C0323021F484E08987B7015FC02B8504
:1006C0003C858B899C89281B390B3C872B87ED84C3
:1006D000FE840F851889AD88BE88CF88D88CEA142F
:1006E000FB040C051D0540F4EE0CFF1C001F111F40
:1006F000215030403C872B8720E030E040E050E044
:1007000080E090E0A0E0B0E460E070E0EA14FB0478
:100710000C051D0540F0282B392B4A2B5B2BEA18C2
:10072000FB080C091D09B695A79597958795EE0CC2
:10073000FF1C001F111F6F5F7F4F6F31710531F775
:10074000DA01C9018F779070A070B0708034910584
:10075000A105B10561F427FD0AC0E114F10401050A
:10076000110529F0205C3F4F4F4F5F4F20782D87B8
:100770003E874F87588BBE01675F7F4FCB010E943A
:1007800056056896EAE00C942A16A8E1B0E0EBEC76
:10079000F3E00C94121669837A838B839C832D83F8
:1007A0003E834F83588789E0E82EF12CEC0EFD1E26
:1007B000CE010196B7010E942B068E010F5E1F4FDE
:1007C000CE010596B8010E942B068985823040F043
:1007D0008989823028F0C701B8010E94A30601C0B0
:1007E0008FEF6896E6E00C942E16A8E1B0E0EBEFF0
:1007F000F3E00C94121669837A838B839C832D8398
:100800003E834F83588789E0E82EF12CEC0EFD1EC5
:10081000CE010196B7010E942B068E010F5E1F4F7D
:10082000CE010596B8010E942B068985823040F0E2
:100830008989823028F0C701B8010E94A30601C04F
:100840008FEF6896E6E00C942E16A8E1B0E0EBE29C
:10085000F4E00C94121669837A838B839C832D8336
:100860003E834F83588789E0E82EF12CEC0EFD1E65
:10087000CE010196B7010E942B068E010F5E1F4F1D
:10088000CE010596B8010E942B068985823040F082
:100890008989823028F0C701B8010E94A30601C0EF
:1008A00081E06896E6E00C942E16A8E0B0E0EBE557
:1008B000F4E00C940F169B01AC0183E08983DA010C
:1008C000C9018827B7FD83959927AA27BB27B82E8A
:1008D000211531054105510519F482E089833AC09B
:1008E0008823A9F0203080E0380780E0480780E8BE
:1008F000580729F460E070E080E09FEC30C0EE24FF
:10090000FF248701E21AF30A040B150B02C07901D8
:100910008A018EE1C82ED12CDC82CB82ED82FE8250
:100920000F831887C801B7010E94070501971816A1
:10093000190684F4082E04C0EE0CFF1C001F111FC2
:100940000A94D2F7ED82FE820F831887C81AD90A5B
:10095000DC82CB82BA82CE0101960E94560528968F
:10096000E9E00C942B16ACE0B0E0E9EBF4E00C9479
:10097000161669837A838B839C83CE010196BE0110
:100980006B5F7F4F0E942B068D81823061F1823038
:1009900050F1843021F48E81882351F12EC02F81B3
:1009A000388537FD20C06E812F3131051CF066235C
:1009B000F9F023C08EE190E0821B930B29853A85E4
:1009C0004B855C8504C056954795379527958A9544
:1009D000D2F76623B1F050954095309521953F4F61
:1009E0004F4F5F4F0EC020E030E040E050E009C0C4
:1009F0002FEF3FEF4FEF5FE704C020E030E040E033
:100A000050E8B901CA012C96E2E00C943216EF923C
:100A1000FF920F931F937B018C0180E0E81680E02A
:100A2000F80681E0080780E0180788F48FEFE816E1
:100A3000F1040105110531F028F088E090E0A0E014
:100A4000B0E017C080E090E0A0E0B0E012C080E02D
:100A5000E81680E0F80680E0080781E0180728F033
:100A600088E190E0A0E0B0E004C080E190E0A0E088
:100A7000B0E020E230E040E050E0281B390B4A0BA8
:100A80005B0B04C016950795F794E7948A95D2F707
:100A9000F701E754FF4F8081281B310941095109B3
:100AA000C9011F910F91FF90EF900895DF92EF928F
:100AB000FF920F931F93FC01E480F580068117815C
:100AC000D1808081823048F480E090E0A0E1B0E005
:100AD000E82AF92A0A2B1B2BA5C0843009F49FC0F1
:100AE000823021F4EE24FF24870105C0E114F104D3
:100AF0000105110519F4E0E0F0E096C06281738110
:100B00009FEF623879070CF05BC022E83FEF261BAD
:100B1000370B2A3131052CF020E030E040E050E086
:100B20002AC0B801A701022E04C076956795579593
:100B300047950A94D2F781E090E0A0E0B0E004C0CD
:100B4000880F991FAA1FBB1F2A95D2F70197A109E9
:100B5000B1098E219F21A023B1230097A105B105E2
:100B600021F081E090E0A0E0B0E09A01AB01282BF9
:100B7000392B4A2B5B2BDA01C9018F779070A0705B
:100B8000B07080349105A105B10539F427FF09C083
:100B9000205C3F4F4F4F5F4F04C0215C3F4F4F4F92
:100BA0005F4FE0E0F0E02030A0E03A07A0E04A0725
:100BB000A0E45A0710F0E1E0F0E079018A0127C0D3
:100BC0006038710564F5FB01E158FF4FD801C7019A
:100BD0008F779070A070B07080349105A105B10539
:100BE00039F4E7FE0DC080E490E0A0E0B0E004C07E
:100BF0008FE390E0A0E0B0E0E80EF91E0A1F1B1F93
:100C000017FF05C016950795F794E794319687E08E
:100C100016950795F794E7948A95D1F705C0EE24C9
:100C2000FF248701EFEFF0E06E2F67956627679549
:100C3000902F9F77D794DD24D7948E2F8695492FB8
:100C4000462B582F5D29B701CA011F910F91FF90C4
:100C5000EF90DF900895FC01DB01408151812281FA
:100C6000622F6F7770E0221F2227221F9381892F26
:100C7000880F822B282F30E0991F9927991F1196F2
:100C80009C93119721153105A9F541155105610571
:100C9000710511F482E037C082E89FEF13969C93B0
:100CA0008E9312979A01AB0167E0220F331F441F06
:100CB000551F6A95D1F783E08C930DC0220F331F27
:100CC000441F551F12968D919C911397019713966F
:100CD0009C938E931297203080E0380780E048077D
:100CE00080E4580758F314962D933D934D935C93ED
:100CF000179708952F3F310579F441155105610586
:100D0000710519F484E08C93089564FF03C081E0B9
:100D10008C9312C01C9210C02F57304013963C93F6
:100D20002E93129783E08C9387E0440F551F661F24
:100D3000771F8A95D1F7706414964D935D936D93E8
:100D40007C93179708951F93DC01FB019C919230CF
:100D500008F447C08081823008F443C0943051F4D5
:100D600011961C91843099F58181682F70E0611B88
:100D700071093FC0843021F0923031F48230B9F1F2
:100D80008181882389F12DC011961C9111978230A1
:100D9000F1F081811817D9F412962D913C91139797
:100DA000828193818217930794F028173907BCF04A
:100DB00014968D919D910D90BC91A02D248135812B
:100DC00046815781281739074A075B0718F4112312
:100DD00041F00AC082179307A407B50740F4112316
:100DE00019F061E070E005C06FEF7FEF02C060E0D6
:100DF00070E0CB011F9108950F931F93DF93CF9362
:100E0000CDB7DEB7C654D0400FB6F894DEBF0FBEE4
:100E1000CDBF0E947D0C0E94B5138DE161E00E9460
:100E2000950981E061E00E94EA1480E690E00E946A
:100E3000BF1480E00E94960CFE01ED5BFF4F80E046
:100E400090E0AAEFB4E480839183A283B3838E0100
:100E5000015C1F4FFE01ED5BFF4F6081718182815C
:100E6000938120E030E04AEF54E40E941F02DC014D
:100E7000CB01F80180839183A283B383FE01FF96A7
:100E8000608171818281938120E030E040E85FE3FE
:100E90000E94250488232CF481E090E09EAF8DAF62
:100EA00046C0FE01FF96608171818281938120E0BE
:100EB0003FEF4FE757E40E94C503181664F5FE01A3
:100EC000ED5BFF4F608171818281938120E030E092
:100ED00040E251E40E941F02DC01CB01BC01CD01C4
:100EE0000E944900DC01CB019EAF8DAF0FC088ECA2
:100EF00090E09CAF8BAF8BAD9CAD0197F1F79CAFB1
:100F00008BAF8DAD9EAD01979EAF8DAF8DAD9EAD7C
:100F1000009769F716C0FE01FF966081718182819A
:100F200093810E944900DC01CB019EAF8DAF8DAD56
:100F30009EAD9AAF89AF89AD9AAD0197F1F79AAF9F
:100F400089AF81E00E94D30C8FE690E00E94BF142D
:100F50008CE30E94960C80E090E0AAEFB4E48DABA5
:100F60009EABAFABB8AF6DA97EA98FA998AD20E0BD
:100F700030E04AEF54E40E941F02DC01CB0189AB50
:100F80009AABABABBCAB69A97AA98BA99CA920E0B1
:100F900030E040E85FE30E94250488232CF481E0E0
:100FA00090E098AB8FA73FC069A97AA98BA99CA9AB
:100FB00020E03FEF4FE757E40E94C50318164CF5B9
:100FC0006DA97EA98FA998AD20E030E040E251E400
:100FD0000E941F02DC01CB01BC01CD010E9449002F
:100FE000DC01CB0198AB8FA70FC088EC90E09EA7E7
:100FF0008DA78DA59EA50197F1F79EA78DA78FA51B
:1010000098A9019798AB8FA78FA598A9009769F722
:1010100014C069A97AA98BA99CA90E944900DC0186
:10102000CB0198AB8FA78FA598A99CA78BA78BA561
:101030009CA50197F1F79CA78BA781E00E94D30C98
:101040008FE790E00E94BF148AE50E94960C80E032
:1010500090E0AAEFB4E48FA398A7A9A7BAA76FA1BD
:1010600078A589A59AA520E030E04AEF54E40E94D3
:101070001F02DC01CB018BA39CA3ADA3BEA36BA17C
:101080007CA18DA19EA120E030E040E85FE30E94BA
:10109000250488232CF481E090E09AA389A33FC023
:1010A0006BA17CA18DA19EA120E03FEF4FE757E40B
:1010B0000E94C50318164CF56FA178A589A59AA5BD
:1010C00020E030E040E251E40E941F02DC01CB014D
:1010D000BC01CD010E944900DC01CB019AA389A388
:1010E0000FC088EC90E098A38F8F8F8D98A1019707
:1010F000F1F798A38F8F89A19AA101979AA389A349
:1011000089A19AA1009769F714C06BA17CA18DA158
:101110009EA10E944900DC01CB019AA389A389A169
:101120009AA19E8F8D8F8D8D9E8D0197F1F79E8F49
:101130008D8F81E00E94D30C8FE890E00E94BF1455
:1011400088E70E94960C80E090E0AAEFB4E4898FD3
:101150009A8FAB8FBC8F698D7A8D8B8D9C8D20E0A3
:1011600030E04AEF54E40E941F02DC01CB018D8B7A
:101170009E8BAF8BB88F6D897E898F89988D20E08B
:1011800030E040E85FE30E94250488232CF481E0EE
:1011900090E09C8B8B8B3FC06D897E898F89988D69
:1011A00020E03FEF4FE757E40E94C50318164CF5C7
:1011B000698D7A8D8B8D9C8D20E030E040E251E48A
:1011C0000E941F02DC01CB01BC01CD010E9449003D
:1011D000DC01CB019C8B8B8B0FC088EC90E09A8B51
:1011E000898B89899A890197F1F79A8B898B8B89E9
:1011F0009C8901979C8B8B8B8B899C89009769F7C5
:1012000014C06D897E898F89988D0E944900DC0108
:10121000CB019C8B8B8B8B899C89988B8F878F853F
:1012200098890197F1F7988B8F8781E00E94D30C02
:1012300080EA90E00E94BF1484EB0E94960C80E04C
:1012400090E0AAEFB4E48B879C87AD87BE876B855F
:101250007C858D859E8520E030E04AEF54E40E9435
:101260001F02DC01CB018F839887A987BA876F8122
:10127000788589859A8520E030E040E85FE30E9428
:10128000250488232CF481E090E09E838D833FC069
:101290006F81788589859A8520E03FEF4FE757E495
:1012A0000E94C50318164CF56B857C858D859E853F
:1012B00020E030E040E251E40E941F02DC01CB015B
:1012C000BC01CD010E944900DC01CB019E838D83CE
:1012D0000FC088EC90E09C838B838B819C8101976D
:1012E000F1F79C838B838D819E8101979E838D83F3
:1012F0008D819E81009769F714C06F8178858985FB
:101300009A850E944900DC01CB019E838D838D81EB
:101310009E819A83898389819A810197F1F79A83C3
:10132000898381E00E94D30C7CCDDF93CF9300D0E2
:10133000CDB7DEB789836A838981803208F0CDC05A
:101340008A81882321F08A81813009F0C6C0898191
:10135000883070F5AAE3B0E0EAE3F0E08081482F3E
:101360008981882F90E09C012770307081E090E0A7
:1013700002C0880F991F2A95E2F7809584238C93E9
:10138000AAE3B0E0EAE3F0E08081482F8A81282FC9
:1013900030E08981882F90E087709070B90102C099
:1013A000660F771F8A95E2F7CB01842B8C9395C04B
:1013B00089818850883070F5A7E3B0E0E7E3F0E07A
:1013C0008081482F8981882F90E09C0127703070A0
:1013D00081E090E002C0880F991F2A95E2F780957E
:1013E00084238C93A7E3B0E0E7E3F0E08081482F0B
:1013F0008A81282F30E08981882F90E08770907053
:10140000B90102C0660F771F8A95E2F7CB01842BE2
:101410008C9363C089818051883070F5A4E3B0E07B
:10142000E4E3F0E08081482F8981882F90E09C01DF
:101430002770307081E090E002C0880F991F2A95D4
:10144000E2F7809584238C93A4E3B0E0E4E3F0E03A
:101450008081482F8A81282F30E08981882F90E071
:1014600087709070B90102C0660F771F8A95E2F706
:10147000CB01842B8C9331C089818851883068F5E9
:10148000A1E3B0E0E1E3F0E08081482F8981882F7B
:1014900090E09C012770307081E090E002C0880FDE
:1014A000991F2A95E2F7809584238C93A1E3B0E0FD
:1014B000E1E3F0E08081482F8A81282F30E08981A4
:1014C000882F90E087709070B90102C0660F771F77
:1014D0008A95E2F7CB01842B8C930F900F90CF91DC
:1014E000DF910895DF93CF9300D0CDB7DEB7898326
:1014F0006A838981882329F4EAE3F0E08A81808382
:1015000017C08981813029F4E7E3F0E08A81808384
:101510000FC08981823029F4E4E3F0E08A8180837E
:1015200007C08981833021F4E1E3F0E08A81808380
:101530000F900F90CF91DF910895DF93CF9300D05C
:10154000CDB7DEB789836A838981803208F0CDC048
:101550008A81882321F08A81813009F0C6C089817F
:10156000883070F5ABE3B0E0EBE3F0E08081482F2A
:101570008981882F90E09C012770307081E090E095
:1015800002C0880F991F2A95E2F7809584238C93D7
:10159000ABE3B0E0EBE3F0E08081482F8A81282FB5
:1015A00030E08981882F90E087709070B90102C087
:1015B000660F771F8A95E2F7CB01842B8C9395C039
:1015C00089818850883070F5A8E3B0E0E8E3F0E066
:1015D0008081482F8981882F90E09C01277030708E
:1015E00081E090E002C0880F991F2A95E2F780956C
:1015F00084238C93A8E3B0E0E8E3F0E08081482FF7
:101600008A81282F30E08981882F90E08770907040
:10161000B90102C0660F771F8A95E2F7CB01842BD0
:101620008C9363C089818051883070F5A5E3B0E068
:10163000E5E3F0E08081482F8981882F90E09C01CC
:101640002770307081E090E002C0880F991F2A95C2
:10165000E2F7809584238C93A5E3B0E0E5E3F0E026
:101660008081482F8A81282F30E08981882F90E05F
:1016700087709070B90102C0660F771F8A95E2F7F4
:10168000CB01842B8C9331C089818851883068F5D7
:10169000A2E3B0E0E2E3F0E08081482F8981882F67
:1016A00090E09C012770307081E090E002C0880FCC
:1016B000991F2A95E2F7809584238C93A2E3B0E0EA
:1016C000E2E3F0E08081482F8A81282F30E0898191
:1016D000882F90E087709070B90102C0660F771F65
:1016E0008A95E2F7CB01842B8C930F900F90CF91CA
:1016F000DF910895DF93CF9300D0CDB7DEB7898314
:101700006A838981882329F4EBE3F0E08A8180836E
:1017100017C08981813029F4E8E3F0E08A81808371
:101720000FC08981823029F4E5E3F0E08A8180836B
:1017300007C08981833021F4E2E3F0E08A8180836D
:101740000F900F90CF91DF910895DF93CF9300D04A
:10175000CDB7DEB78A838A81803208F09AC08A8149
:10176000883018F5E9E3F0E08081482F50E08A8165
:10177000882F90E09C012770307081E090E002C0DB
:10178000880F991F2A95E2F79A01282339238A8125
:10179000882F90E087709070A90102C055954795F9
:1017A0008A95E2F7CA01898374C08A81885088309B
:1017B00018F5E6E3F0E08081482F50E08A81882F19
:1017C00090E09C012770307081E090E002C0880FAB
:1017D000991F2A95E2F79A01282339238A81882FB5
:1017E00090E087709070A90102C0559547958A9541
:1017F000E2F7CA0189834DC08A818051883018F58B
:10180000E3E3F0E08081482F50E08A81882F90E068
:101810009C012770307081E090E002C0880F991F12
:101820002A95E2F79A01282339238A81882F90E0AC
:1018300087709070A90102C0559547958A95E2F787
:10184000CA01898326C08A818851883010F5E0E377
:10185000F0E08081482F50E08A81882F90E09C0141
:101860002770307081E090E002C0880F991F2A95A0
:10187000E2F79A01282339238A81882F90E0877024
:101880009070A90102C0559547958A95E2F7CA0163
:10189000898389810F900F90CF91DF910895DF9315
:1018A000CF9300D0CDB7DEB789838981882329F40F
:1018B000E9E3F0E080818A831AC08981813029F4CC
:1018C000E6E3F0E080818A8312C08981823029F4C6
:1018D000E3E3F0E080818A830AC08981833029F4C0
:1018E000E0E3F0E080818A8302C08FEF8A838A81FF
:1018F0000F900F90CF91DF910895DF93CF93CDB7E5
:10190000DEB7AFE4B0E0EFE4F0E0808182688C9372
:10191000AEE4B0E0EEE4F0E080818C618C93E6E42C
:10192000F0E081E78083CF91DF910895DF93CF933B
:1019300000D00F92CDB7DEB78B838B81853B68F5E6
:101940008B81882F90E0AA2797FDA095BA2FBC0124
:10195000CD010E945504DC01CB01BC01CD012BE778
:1019600034E14EEA5EE30E941F02DC01CB01BC01C0
:10197000CD0120E030E040E351E40E94F201DC01BF
:10198000CB01BC01CD010E944900DC01CB019A834F
:101990008983EAE4F0E0898180830F900F900F90B3
:1019A000CF91DF9108950F931F93DF93CF93CDB71E
:1019B000DEB7C755D0400FB6F894DEBF0FBECDBF1F
:1019C000FE01E95AFF4F8083A5E3B0E0E5E3F0E0D4
:1019D0008081982F9F70FE01E95AFF4F8081807FA0
:1019E000892B8C93A5E3B0E0E5E3F0E080818E7F66
:1019F0008C93A5E3B0E0E5E3F0E0808182608C9316
:101A0000FE01ED5AFF4F80E090E0A0E8BFE3808345
:101A10009183A283B3838E01015B1F4FFE01ED5AB8
:101A2000FF4F60817181828193812BEA3AEA4AE219
:101A300050E40E941F02DC01CB01F80180839183F6
:101A4000A283B383FE01E15BFF4F608171818281DC
:101A5000938120E030E040E85FE30E942504882382
:101A600034F4FE01E25BFF4F81E08083E0C0FE01C1
:101A7000E15BFF4F608171818281938120E030E0E2
:101A80004FE753E40E94C50318160CF0C0C0FE01D6
:101A9000ED5AFF4F608171818281938120E030E0B7
:101AA0004AE754E40E941903DC01CB01FE01E65B26
:101AB000FF4F80839183A283B3838E010A5B1F4F04
:101AC000FE01E65BFF4F608171818281938120E09E
:101AD00030E04AEF54E40E941F02DC01CB01F80120
:101AE00080839183A283B383FE01EA5BFF4F608111
:101AF00071818281938120E030E040E85FE30E94C1
:101B00002504882344F4FE01EC5BFF4F81E090E064
:101B10009183808364C0FE01EA5BFF4F6081718125
:101B20008281938120E03FEF4FE757E40E94C50395
:101B300018160CF043C0FE01E65BFF4F6081718117
:101B40008281938120E030E040E251E40E941F0254
:101B5000DC01CB018E010C5B1F4FBC01CD010E944B
:101B60004900DC01CB01F801918380831FC0FE0195
:101B7000EE5BFF4F88EC90E091838083FE01EE5B8B
:101B8000FF4F808191810197F1F7FE01EE5BFF4FDE
:101B900091838083DE01AC5BBF4FFE01EC5BFF4FA6
:101BA00080819181019711969C938E93FE01EC5B4D
:101BB000FF4F808191810097D1F642C08E010C5B6E
:101BC0001F4FFE01EA5BFF4F60817181828193812B
:101BD0000E944900DC01CB01F80191838083DE0182
:101BE000A05CBF4FFE01EC5BFF4F8081918111969D
:101BF0009C938E93FE01E05CFF4F80819181019761
:101C0000F1F7FE01E05CFF4F9183808319C08E01E4
:101C1000025B1F4FFE01E15BFF4F6081718182819A
:101C200093810E944900DC01CB01F8018083FE0111
:101C3000E25BFF4F80818FAF8FAD8A95F1F78FAF59
:101C4000A5E3B0E0E5E3F0E080818D7F8C9380E058
:101C500090E0A8E4B3E48BAF9CAFADAFBEAF6BAD8B
:101C60007CAD8DAD9EAD2BEA3AEA4AE250E40E948B
:101C70001F02DC01CB018FAB98AFA9AFBAAF6FA940
:101C800078AD89AD9AAD20E030E040E85FE30E9496
:101C9000250488231CF481E08EAB91C06FA978AD38
:101CA00089AD9AAD20E030E04FE753E40E94C503D0
:101CB00018160CF07BC06BAD7CAD8DAD9EAD20E0F9
:101CC00030E04AE754E40E941903DC01CB018AABFF
:101CD0009BABACABBDAB6AA97BA98CA99DA920E04D
:101CE00030E04AEF54E40E941F02DC01CB018EA7D2
:101CF0009FA7A8ABB9AB6EA57FA588A999A920E03D
:101D000030E040E85FE30E94250488232CF481E062
:101D100090E09DA78CA73FC06EA57FA588A999A933
:101D200020E03FEF4FE757E40E94C50318164CF53B
:101D30006AA97BA98CA99DA920E030E040E251E48A
:101D40000E941F02DC01CB01BC01CD010E944900B1
:101D5000DC01CB019DA78CA70FC088EC90E09BA76E
:101D60008AA78AA59BA50197F1F79BA78AA78CA5AF
:101D70009DA501979DA78CA78CA59DA5009769F7A8
:101D800024C06EA57FA588A999A90E944900DC01FD
:101D9000CB019DA78CA78CA59DA599A788A788A5F1
:101DA00099A50197F1F799A788A70FC06FA978ADFA
:101DB00089AD9AAD0E944900DC01CB018EAB8EA9A2
:101DC0008FA38FA18A95F1F78FA3A5E3B0E0E5E398
:101DD000F0E08081282F2F70FE01E95AFF4F8081AB
:101DE000882F90E082959295907F9827807F982702
:101DF000822B8C93A5E3B0E0E5E3F0E08081826084
:101E00008C9380E090E0A0E8BFE38BA39CA3ADA3FC
:101E1000BEA36BA17CA18DA19EA12BEA3AEA4AE266
:101E200050E40E941F02DC01CB018F8F98A3A9A36D
:101E3000BAA36F8D78A189A19AA120E030E040E893
:101E40005FE30E94250488231CF481E08E8F91C0FB
:101E50006F8D78A189A19AA120E030E04FE753E48B
:101E60000E94C50318160CF07BC06BA17CA18DA14C
:101E70009EA120E030E04AE754E40E941903DC010F
:101E8000CB018A8F9B8FAC8FBD8F6A8D7B8D8C8DA4
:101E90009D8D20E030E04AEF54E40E941F02DC01F7
:101EA000CB018E8B9F8BA88FB98F6E897F89888D90
:101EB000998D20E030E040E85FE30E94250488230C
:101EC0002CF481E090E09D8B8C8B3FC06E897F89E4
:101ED000888D998D20E03FEF4FE757E40E94C503BE
:101EE00018164CF56A8D7B8D8C8D9D8D20E030E031
:101EF00040E251E40E941F02DC01CB01BC01CD0194
:101F00000E944900DC01CB019D8B8C8B0FC088ECBB
:101F100090E09B8B8A8B8A899B890197F1F79B8B39
:101F20008A8B8C899D8901979D8B8C8B8C899D894F
:101F3000009769F724C06E897F89888D998D0E94EA
:101F40004900DC01CB019D8B8C8B8C899D89998B01
:101F5000888B888999890197F1F7998B888B0FC0B5
:101F60006F8D78A189A19AA10E944900DC01CB0163
:101F70008E8F8E8D8F878F858A95F1F78F87A5E35A
:101F8000B0E0E5E3F0E080818D7F8C9380E090E02D
:101F9000A0E0B0E48B879C87AD87BE876B857C858E
:101FA0008D859E8520E030E04AEF54E40E941F02B8
:101FB000DC01CB018F839887A987BA876F817885E9
:101FC00089859A8520E030E040E85FE30E9425049F
:101FD00088232CF481E090E09E838D833FC06F8145
:101FE000788589859A8520E03FEF4FE757E40E9486
:101FF000C50318164CF56B857C858D859E8520E084
:1020000030E040E251E40E941F02DC01CB01BC0140
:10201000CD010E944900DC01CB019E838D830FC05E
:1020200088EC90E09C838B838B819C810197F1F7F6
:102030009C838B838D819E8101979E838D838D816F
:102040009E81009769F714C06F81788589859A858C
:102050000E944900DC01CB019E838D838D819E818E
:102060009A83898389819A810197F1F79A83898379
:10207000C95ADF4F0FB6F894DEBF0FBECDBFCF9168
:10208000DF911F910F9108950F931F93DF93CF93CB
:10209000CDB7DEB7C755D0400FB6F894DEBF0FBE40
:1020A000CDBFFE01E95AFF4F8083A5E3B0E0E5E331
:1020B000F0E08081982F9F70FE01E95AFF4F8081E8
:1020C000807F892B8C93A5E3B0E0E5E3F0E080818D
:1020D00081608C93A5E3B0E0E5E3F0E0808182606D
:1020E0008C93FE01ED5AFF4F80E090E0A0E8BFE343
:1020F00080839183A283B3838E01015B1F4FFE0116
:10210000ED5AFF4F60817181828193812BEA3AEA17
:102110004AE250E40E941F02DC01CB01F8018083F7
:102120009183A283B383FE01E15BFF4F60817181E4
:102130008281938120E030E040E85FE30E94250443
:10214000882334F4FE01E25BFF4F81E08083E0C02E
:10215000FE01E15BFF4F608171818281938120E00C
:1021600030E04FE753E40E94C50318160CF0C0C0DE
:10217000FE01ED5AFF4F608171818281938120E0E1
:1021800030E04AE754E40E941903DC01CB01FE0170
:10219000E65BFF4F80839183A283B3838E010A5B4A
:1021A0001F4FFE01E65BFF4F608171818281938149
:1021B00020E030E04AEF54E40E941F02DC01CB0132
:1021C000F80180839183A283B383FE01EA5BFF4F12
:1021D000608171818281938120E030E040E85FE39B
:1021E0000E942504882344F4FE01EC5BFF4F81E04C
:1021F00090E09183808364C0FE01EA5BFF4F6081C1
:1022000071818281938120E03FEF4FE757E40E9484
:10221000C50318160CF043C0FE01E65BFF4F60815A
:1022200071818281938120E030E040E251E40E949C
:102230001F02DC01CB018E010C5B1F4FBC01CD01E5
:102240000E944900DC01CB01F801918380831FC00B
:10225000FE01EE5BFF4F88EC90E091838083FE01EE
:10226000EE5BFF4F808191810197F1F7FE01EE5BFC
:10227000FF4F91838083DE01AC5BBF4FFE01EC5BBF
:10228000FF4F80819181019711969C938E93FE015F
:10229000EC5BFF4F808191810097D1F642C08E01A7
:1022A0000C5B1F4FFE01EA5BFF4F608171818281F1
:1022B00093810E944900DC01CB01F8019183808366
:1022C000DE01A05CBF4FFE01EC5BFF4F808191817E
:1022D00011969C938E93FE01E05CFF4F808191816B
:1022E0000197F1F7FE01E05CFF4F9183808319C0F5
:1022F0008E01025B1F4FFE01E15BFF4F6081718128
:10230000828193810E944900DC01CB01F801808326
:10231000FE01E25BFF4F80818FAF8FAD8A95F1F7B1
:102320008FAFA5E3B0E0E5E3F0E080818D7F8C9393
:1023300080E090E0A8E4B3E48BAF9CAFADAFBEAF5C
:102340006BAD7CAD8DAD9EAD2BEA3AEA4AE250E42E
:102350000E941F02DC01CB018FAB98AFA9AFBAAFCF
:102360006FA978AD89AD9AAD20E030E040E85FE339
:102370000E94250488231CF481E08EAB91C06FA9D4
:1023800078AD89AD9AAD20E030E04FE753E40E948C
:10239000C50318160CF07BC06BAD7CAD8DAD9EAD4A
:1023A00020E030E04AE754E40E941903DC01CB014D
:1023B0008AAB9BABACABBDAB6AA97BA98CA99DA931
:1023C00020E030E04AEF54E40E941F02DC01CB0120
:1023D0008EA79FA7A8ABB9AB6EA57FA588A999A921
:1023E00020E030E040E85FE30E94250488232CF4DD
:1023F00081E090E09DA78CA73FC06EA57FA588A92E
:1024000099A920E03FEF4FE757E40E94C503181653
:102410004CF56AA97BA98CA99DA920E030E040E297
:1024200051E40E941F02DC01CB01BC01CD010E94DE
:102430004900DC01CB019DA78CA70FC088EC90E080
:102440009BA78AA78AA59BA50197F1F79BA78AA7B7
:102450008CA59DA501979DA78CA78CA59DA50097F0
:1024600069F724C06EA57FA588A999A90E94490093
:10247000DC01CB019DA78CA78CA59DA599A788A75A
:1024800088A599A50197F1F799A788A70FC06FA90B
:1024900078AD89AD9AAD0E944900DC01CB018EABCD
:1024A0008EA98FA38FA18A95F1F78FA3A5E3B0E042
:1024B000E5E3F0E08081282F2F70FE01E95AFF4FFD
:1024C0008081882F90E082959295907F9827807FD9
:1024D0009827822B8C93A5E3B0E0E5E3F0E08081C0
:1024E00082608C9380E090E0A0E8BFE38BA39CA384
:1024F000ADA3BEA36BA17CA18DA19EA12BEA3AEA5C
:102500004AE250E40E941F02DC01CB018F8F98A3A6
:10251000A9A3BAA36F8D78A189A19AA120E030E088
:1025200040E85FE30E94250488231CF481E08E8F3D
:1025300091C06F8D78A189A19AA120E030E04FE78A
:1025400053E40E94C50318160CF07BC06BA17CA15C
:102550008DA19EA120E030E04AE754E40E941903D7
:10256000DC01CB018A8F9B8FAC8FBD8F6A8D7B8DF9
:102570008C8D9D8D20E030E04AEF54E40E941F02D4
:10258000DC01CB018E8B9F8BA88FB98F6E897F89E1
:10259000888D998D20E030E040E85FE30E942504BB
:1025A00088232CF481E090E09D8B8C8B3FC06E895A
:1025B0007F89888D998D20E03FEF4FE757E40E9497
:1025C000C50318164CF56A8D7B8D8C8D9D8D20E092
:1025D00030E040E251E40E941F02DC01CB01BC016B
:1025E000CD010E944900DC01CB019D8B8C8B0FC07B
:1025F00088EC90E09B8B8A8B8A899B890197F1F705
:102600009B8B8A8B8C899D8901979D8B8C8B8C8968
:102610009D89009769F724C06E897F89888D998D7F
:102620000E944900DC01CB019D8B8C8B8C899D899C
:10263000998B888B888999890197F1F7998B888B79
:102640000FC06F8D78A189A19AA10E944900DC0179
:10265000CB018E8F8E8D8F878F858A95F1F78F872F
:10266000A5E3B0E0E5E3F0E080818D7F8C9380E02E
:1026700090E0A0E0B0E48B879C87AD87BE876B8538
:102680007C858D859E8520E030E04AEF54E40E94F1
:102690001F02DC01CB018F839887A987BA876F81DE
:1026A000788589859A8520E030E040E85FE30E94E4
:1026B000250488232CF481E090E09E838D833FC025
:1026C0006F81788589859A8520E03FEF4FE757E451
:1026D0000E94C50318164CF56B857C858D859E85FB
:1026E00020E030E040E251E40E941F02DC01CB0117
:1026F000BC01CD010E944900DC01CB019E838D838A
:102700000FC088EC90E09C838B838B819C81019728
:10271000F1F79C838B838D819E8101979E838D83AE
:102720008D819E81009769F714C06F8178858985B6
:102730009A850E944900DC01CB019E838D838D81A7
:102740009E819A83898389819A810197F1F79A837F
:102750008983C95ADF4F0FB6F894DEBF0FBECDBFD5
:10276000CF91DF911F910F910895DF93CF93CDB754
:10277000DEB76C970FB6F894DEBF0FBECDBFE4E3B3
:10278000F0E08FEF808380E090E0A0EFB1E4898FEC
:102790009A8FAB8FBC8F698D7A8D8B8D9C8D20E04D
:1027A00030E04AEF54E40E941F02DC01CB018D8B24
:1027B0009E8BAF8BB88F6D897E898F89988D20E035
:1027C00030E040E85FE30E94250488232CF481E098
:1027D00090E09C8B8B8B3FC06D897E898F89988D13
:1027E00020E03FEF4FE757E40E94C50318164CF571
:1027F000698D7A8D8B8D9C8D20E030E040E251E434
:102800000E941F02DC01CB01BC01CD010E944900E6
:10281000DC01CB019C8B8B8B0FC088EC90E09A8BFA
:10282000898B89899A890197F1F79A8B898B8B8992
:102830009C8901979C8B8B8B8B899C89009769F76E
:1028400014C06D897E898F89988D0E944900DC01B2
:10285000CB019C8B8B8B8B899C89988B8F878F85E9
:1028600098890197F1F7988B8F8781E00E94D30CAC
:1028700082E00E94D30C88E20E94D30C8CE00E947C
:10288000D30C86E00E94D30C80E090E0A0E0B0E49E
:102890008B879C87AD87BE876B857C858D859E8564
:1028A00020E030E04AEF54E40E941F02DC01CB013B
:1028B0008F839887A987BA876F81788589859A855C
:1028C00020E030E040E85FE30E94250488232CF4F8
:1028D00081E090E09E838D833FC06F8178858985FC
:1028E0009A8520E03FEF4FE757E40E94C503181692
:1028F0004CF56B857C858D859E8520E030E040E23F
:1029000051E40E941F02DC01CB01BC01CD010E94F9
:102910004900DC01CB019E838D830FC088EC90E0E1
:102920009C838B838B819C810197F1F79C838B83A4
:102930008D819E8101979E838D838D819E810097DD
:1029400069F714C06F81788589859A850E9449004E
:10295000DC01CB019E838D838D819E819A83898347
:1029600089819A810197F1F79A8389836C960FB6D2
:10297000F894DEBF0FBECDBFCF91DF910895DF93F6
:10298000CF9300D000D0CDB7DEB79C838B831A8263
:1029900019820FC029813A818B819C81FC01E20F51
:1029A000F31F80810E94441089819A8101969A8345
:1029B000898329813A818B819C81FC01E20FF31F7D
:1029C0008081882339F70F900F900F900F90CF914F
:1029D000DF910895DF93CF9300D000D0CDB7DEB75D
:1029E00089836A838A818823E1F08A818131C8F4EE
:1029F0008981282F30E03C832B838B819C8181301F
:102A0000910531F02B813C812230310531F009C034
:102A10008A8181580E94D30C04C08A8181540E940B
:102A2000D30C0F900F900F900F90CF91DF910895DE
:102A3000DF93CF9300D000D0CDB7DEB789836A8310
:102A40005C834B838981882349F48A81803130F407
:102A50008A818F7080680E94D30C0BC0898181307D
:102A600041F48A81803128F48A818F70806C0E94C1
:102A7000D30C8B819C810E94BF140F900F900F90FC
:102A80000F90CF91DF910895DF93CF93CDB7DEB74D
:102A90002E970FB6F894DEBF0FBECDBF81E00E9427
:102AA000D30C80E090E0A0E0B0E48B879C87AD87FA
:102AB000BE876B857C858D859E8520E030E04AEF62
:102AC00054E40E941F02DC01CB018F839887A98701
:102AD000BA876F81788589859A8520E030E040E863
:102AE0005FE30E94250488232CF481E090E09E831C
:102AF0008D833FC06F81788589859A8520E03FEF7F
:102B00004FE757E40E94C50318164CF56B857C858A
:102B10008D859E8520E030E040E251E40E941F0256
:102B2000DC01CB01BC01CD010E944900DC01CB01DD
:102B30009E838D830FC088EC90E09C838B838B8178
:102B40009C810197F1F79C838B838D819E810197F6
:102B50009E838D838D819E81009769F714C06F815C
:102B6000788589859A850E944900DC01CB019E8386
:102B70008D838D819E819A83898389819A81019732
:102B8000F1F79A83898380E80E94D30C2E960FB6C2
:102B9000F894DEBF0FBECDBFCF91DF910895DF93D4
:102BA000CF9300D000D00F92CDB7DEB79C838B833C
:102BB0006D831A8219828D81882F90E00896880F84
:102BC000991F880F991F880F991F0E94D30C1A8292
:102BD00019820FC029813A818B819C81FC01E20F0F
:102BE000F31F80810E94441089819A8101969A8303
:102BF000898389819A818830910564F30F900F90C1
:102C00000F900F900F90CF91DF9108952F923F92E8
:102C10004F925F926F927F928F929F92AF92BF92EC
:102C2000CF92DF92EF92FF920F931F93CF93DF9398
:102C3000CDB7DEB7CA1BDB0B0FB6F894DEBF0FBEF5
:102C4000CDBF09942A88398848885F846E847D8442
:102C50008C849B84AA84B984C884DF80EE80FD8044
:102C60000C811B81AA81B981CE0FD11D0FB6F894BA
:0E2C7000DEBF0FBECDBFED010895F894FFCF7B
:102C7E00476F20746F20416E67203A203020004746
:102C8E006F20746F20416E67203A20363020004747
:102C9E006F20746F20416E67203A20393020004734
:102CAE006F20746F20416E67203A20313230200041
:102CBE00476F20746F20416E67203A2031383020E4
:102CCE0000000000000000000000010202030303E8
:102CDE0003040404040404040405050505050505A0
:102CEE00050505050505050505060606060606067F
:102CFE000606060606060606060606060606060666
:102D0E00060606060606060606070707070707074E
:102D1E000707070707070707070707070707070735
:102D2E000707070707070707070707070707070725
:102D3E000707070707070707070707070707070715
:102D4E0007070707070707070708080808080808FE
:102D5E0008080808080808080808080808080808E5
:102D6E0008080808080808080808080808080808D5
:102D7E0008080808080808080808080808080808C5
:102D8E0008080808080808080808080808080808B5
:102D9E0008080808080808080808080808080808A5
:102DAE000808080808080808080808080808080895
:102DBE000808080808080808080808080808080885
:0A2DCE0008080808080808080800B3
:00000001FF
