:100000000C942A000C943F000C943F000C943F0089
:100010000C943F000C943F000C943F000C943F0064
:100020000C943F000C943F000C943F000C943F0054
:100030000C943F000C943F000C943F000C943F0044
:100040000C943F000C943F000C943F000C943F0034
:100050000C943F0011241FBECFE5D8E0DEBFCDBF1A
:1000600010E0A0E6B0E0EEECF8E002C005900D92E2
:10007000A236B107D9F70E944E040C9465040C9483
:100080000000DF93CF9300D000D00F92CDB7DEB742
:1000900089836A834B838981282F30E03D832C83B9
:1000A0008C819D818130910509F446C02C813D8170
:1000B000223031052CF48C819D81009771F0C7C0EE
:1000C0002C813D812230310509F465C08C819D81F0
:1000D0008330910509F48EC0BAC08B818823A1F4C6
:1000E000AAE3B0E0EAE3F0E08081482F8A81282F7C
:1000F00030E081E090E0022E02C0880F991F0A9440
:10010000E2F7809584238C938B81813009F09FC026
:10011000AAE3B0E0EAE3F0E08081482F8A81282F4B
:1001200030E081E090E0022E02C0880F991F0A940F
:10013000E2F7842B8C938BC08B818823A1F4A7E3F7
:10014000B0E0E7E3F0E08081482F8A81282F30E09B
:1001500081E090E0022E02C0880F991F0A94E2F716
:10016000809584238C938B81813009F070C0A7E344
:10017000B0E0E7E3F0E08081482F8A81282F30E06B
:1001800081E090E0022E02C0880F991F0A94E2F7E6
:10019000842B8C935CC08B818823A1F4A4E3B0E012
:1001A000E4E3F0E08081482F8A81282F30E081E06D
:1001B00090E0022E02C0880F991F0A94E2F7809502
:1001C00084238C938B81813009F041C0A4E3B0E09B
:1001D000E4E3F0E08081482F8A81282F30E081E03D
:1001E00090E0022E02C0880F991F0A94E2F7842B38
:1001F0008C932DC08B818823A1F4A1E3B0E0E1E3CF
:10020000F0E08081482F8A81282F30E081E090E063
:10021000022E02C0880F991F0A94E2F7809584236A
:100220008C938B81813099F4A1E3B0E0E1E3F0E0BD
:100230008081482F8A81282F30E081E090E0022ED3
:1002400002C0880F991F0A94E2F7842B8C930F90B9
:100250000F900F900F900F90CF91DF910895DF9343
:10026000CF9300D000D00F92CDB7DEB789836A83D9
:100270004B838981282F30E03D832C838C819D81A5
:100280008130910509F446C02C813D812230310531
:100290002CF48C819D81009771F0C7C02C813D8129
:1002A0002230310509F465C08C819D818330910530
:1002B00009F48EC0BAC08B818823A1F4ABE3B0E00F
:1002C000EBE3F0E08081482F8A81282F30E081E045
:1002D00090E0022E02C0880F991F0A94E2F78095E1
:1002E00084238C938B81813009F09FC0ABE3B0E015
:1002F000EBE3F0E08081482F8A81282F30E081E015
:1003000090E0022E02C0880F991F0A94E2F7842B16
:100310008C938BC08B818823A1F4A8E3B0E0E8E341
:10032000F0E08081482F8A81282F30E081E090E042
:10033000022E02C0880F991F0A94E2F78095842349
:100340008C938B81813009F070C0A8E3B0E0E8E3C2
:10035000F0E08081482F8A81282F30E081E090E012
:10036000022E02C0880F991F0A94E2F7842B8C9307
:100370005CC08B818823A1F4A5E3B0E0E5E3F0E065
:100380008081482F8A81282F30E081E090E0022E82
:1003900002C0880F991F0A94E2F7809584238C93FA
:1003A0008B81813009F041C0A5E3B0E0E5E3F0E0E6
:1003B0008081482F8A81282F30E081E090E0022E52
:1003C00002C0880F991F0A94E2F7842B8C932DC0EA
:1003D0008B818823A1F4A2E3B0E0E2E3F0E0808126
:1003E000482F8A81282F30E081E090E0022E02C061
:1003F000880F991F0A94E2F7809584238C938B8150
:10040000813099F4A2E3B0E0E2E3F0E08081482F8C
:100410008A81282F30E081E090E0022E02C0880F10
:10042000991F0A94E2F7842B8C930F900F900F90F2
:100430000F900F90CF91DF910895DF93CF9300D06D
:1004400000D00F92CDB7DEB789836A838981282FC8
:1004500030E03D832C834C815D8141305105B1F109
:100460008C819D818230910534F42C813D81211550
:10047000310571F085C04C815D814230510509F430
:1004800043C08C819D818330910509F45BC078C0A5
:10049000E9E3F0E08081482F50E08A81282F30E0A6
:1004A00081E090E002C0880F991F2A95E2F79A0137
:1004B000282339238A81882F90E0A90102C055950D
:1004C00047958A95E2F7CA018B835CC0E6E3F0E0CA
:1004D0008081482F50E08A81282F30E081E090E031
:1004E00002C0880F991F2A95E2F79A012823392321
:1004F0008A81882F90E0A90102C0559547958A9579
:10050000E2F7CA018B833EC0E3E3F0E08081482F2D
:1005100050E08A81282F30E081E090E002C0880F0F
:10052000991F2A95E2F79A01282339238A81882F77
:1005300090E0A90102C0559547958A95E2F7CA0156
:100540008B8320C0E0E3F0E08081482F50E08A8177
:10055000282F30E081E090E002C0880F991F2A9593
:10056000E2F79A01282339238A81882F90E0A90194
:1005700002C0559547958A95E2F7CA018B8302C060
:1005800059815B838B810F900F900F900F900F908C
:10059000CF91DF910895DF93CF9300D000D0CDB7F6
:1005A000DEB789836A838981282F30E03C832B83DF
:1005B0008B819C8181309105D1F02B813C8122304F
:1005C00031052CF48B819C81009761F01EC02B813A
:1005D0003C812230310581F08B819C8183309105F3
:1005E00081F013C0EAE3F0E08A8180830EC0E7E384
:1005F000F0E08A81808309C0E4E3F0E08A818083AF
:1006000004C0E1E3F0E08A8180830F900F900F90A7
:100610000F90CF91DF910895DF93CF9300D000D05A
:10062000CDB7DEB789836A838981282F30E03C8388
:100630002B838B819C8181309105D1F02B813C8172
:10064000223031052CF48B819C81009761F01EC013
:100650002B813C812230310581F08B819C8183305C
:10066000910581F013C0EBE3F0E08A8180830EC036
:10067000E8E3F0E08A81808309C0E5E3F0E08A8165
:10068000808304C0E2E3F0E08A8180830F900F90C2
:100690000F900F90CF91DF910895DF93CF93CDB757
:1006A000DEB780E060EF0E94CB0280E06FEF0E9437
:1006B0000C03CF91DF910895DF93CF93CDB7DEB7D1
:1006C00080E067E040E00E942F0180E066E041E0CA
:1006D0000E942F0180E065E041E00E942F0180E050
:1006E00064E041E00E942F0180E060E00E941D0272
:1006F000882319F4109260001DC080E061E00E9420
:100700001D02882321F481E08093600013C080E003
:1007100062E00E941D02882321F482E08093600041
:1007200009C080E063E00E941D02882319F483E081
:100730008093600080E067E041E00E942F0180E04C
:1007400066E040E00E942F0180E065E041E00E9409
:100750002F0180E064E041E00E942F0180E060E032
:100760000E941D02882321F484E0809360001DC054
:1007700080E061E00E941D02882321F485E08093DF
:10078000600013C080E062E00E941D02882321F413
:1007900086E08093600009C080E063E00E941D0253
:1007A000882319F487E08093600080E067E041E0EF
:1007B0000E942F0180E066E041E00E942F0180E06E
:1007C00065E040E00E942F0180E064E041E00E948B
:1007D0002F0180E060E00E941D02882321F488E060
:1007E000809360001DC080E061E00E941D028823AC
:1007F00021F489E08093600013C080E062E00E94F1
:100800001D02882321F48AE08093600009C080E003
:1008100063E00E941D02882319F48BE0809360003E
:1008200080E067E041E00E942F0180E066E041E067
:100830000E942F0180E065E041E00E942F0180E0EE
:1008400064E040E00E942F0180E060E00E941D0211
:10085000882321F48CE0809360001DC080E061E07B
:100860000E941D02882321F48DE08093600013C054
:1008700080E062E00E941D02882321F48EE08093D4
:10088000600009C080E063E00E941D02882319F423
:100890008FE080936000CF91DF910895DF93CF9335
:1008A000CDB7DEB70E944D0383E060E041E00E94D7
:1008B00041000E945C03809160008330D1F783E0A7
:0E08C00060E041E00E942F01F4CFF894FFCFDA
:0208CE006300C5
:00000001FF
